{
  "transactions": [
    {
      "hash": "0xfe25547b2b5829b5093da2be549da13dfd80d7137e615914276d879c62d35840",
      "transactionType": "CALL",
      "contractName": null,
      "contractAddress": "0x04faa2826dbb38a7a4e9a5e3db26b9e389e761b6",
      "function": "propose(address[],uint256[],bytes[],string)",
      "arguments": [
        "[0x8768c789C6df8AF1a92d96dE823b4F80010Db294, 0x04faA2826DbB38a7A4E9a5E3dB26b9E389E761B6]",
        "[0, 0]",
        "[0x4f1ef286000000000000000000000000c3a36d72be57866ec4751d709b5bef67efa9baef0000000000000000000000000000000000000000000000000000000000000040000000000000000000000000000000000000000000000000000000000000002429b6eca900000000000000000000000073f0849756f6a79c1d536b7abab1e6955f7172a400000000000000000000000000000000000000000000000000000000, 0x4f1ef286000000000000000000000000c3a36d72be57866ec4751d709b5bef67efa9baef0000000000000000000000000000000000000000000000000000000000000040000000000000000000000000000000000000000000000000000000000000002429b6eca900000000000000000000000073f0849756f6a79c1d536b7abab1e6955f7172a400000000000000000000000000000000000000000000000000000000]",
        "# [SIP-42] Enable stkSEAM to be used for Governance\\n\\n## Summary\\nEnable stkSEAM voting power to be counted in addition to SEAM and esSEAM voting power on Seamless governance proposals.\\n\\n## Context and Motivation\\nThe stkSEAM token is being introduced as part of the Seamless tokenomics proposal outlined in [this Discourse post](https://seamlessprotocol.discourse.group/t/gp-activating-seam-tokenomics/585). This token represents staked SEAM within the protocol.\\n\\nCurrently, the Seamless governance system only allows voting with SEAM and esSEAM tokens. This proposal aims to upgrade the Seamless governor contracts to enable stkSEAM as a votable token for governance alongside SEAM and esSEAM. This upgrade must be initiated through the Seamless long governor since it involves a fundamental change to the governance structure.\\n\\nBy implementing this change, stkSEAM holders will be able to participate in Seamless governance, ensuring that users who have demonstrated their commitment to the protocol through staking can have a voice in decision-making.\\n\\n## Resources/References\\n- Relevant Discourse discussion: [here](https://seamlessprotocol.discourse.group/t/gp-activating-seam-tokenomics/585)\\n- This proposal is prepared with the [Seamless Governance Proposals tools](https://github.com/seamless-protocol/gov-proposals)\\n- Proposal actions and tests can be found [here](https://github.com/seamless-protocol/gov-proposals/tree/main/proposals/sip_42)"
      ],
      "transaction": {
        "from": "0x6d0c9128165a7bf2a2072319129d49d8f458fe0a",
        "to": "0x04faa2826dbb38a7a4e9a5e3db26b9e389e761b6",
        "gas": "0xd861d",
        "value": "0x0",
        "input": "0x7d5e81e2000000000000000000000000000000000000000000000000000000000000008000000000000000000000000000000000000000000000000000000000000000e00000000000000000000000000000000000000000000000000000000000000140000000000000000000000000000000000000000000000000000000000000036000000000000000000000000000000000000000000000000000000000000000020000000000000000000000008768c789c6df8af1a92d96de823b4f80010db29400000000000000000000000004faa2826dbb38a7a4e9a5e3db26b9e389e761b600000000000000000000000000000000000000000000000000000000000000020000000000000000000000000000000000000000000000000000000000000000000000000000000000000000000000000000000000000000000000000000000000000000000000000000000000000000000000000000000000000000000000020000000000000000000000000000000000000000000000000000000000000040000000000000000000000000000000000000000000000000000000000000012000000000000000000000000000000000000000000000000000000000000000a44f1ef286000000000000000000000000c3a36d72be57866ec4751d709b5bef67efa9baef0000000000000000000000000000000000000000000000000000000000000040000000000000000000000000000000000000000000000000000000000000002429b6eca900000000000000000000000073f0849756f6a79c1d536b7abab1e6955f7172a4000000000000000000000000000000000000000000000000000000000000000000000000000000000000000000000000000000000000000000000000000000000000000000000000000000000000000000000000000000a44f1ef286000000000000000000000000c3a36d72be57866ec4751d709b5bef67efa9baef0000000000000000000000000000000000000000000000000000000000000040000000000000000000000000000000000000000000000000000000000000002429b6eca900000000000000000000000073f0849756f6a79c1d536b7abab1e6955f7172a4000000000000000000000000000000000000000000000000000000000000000000000000000000000000000000000000000000000000000000000000000000000000000000000000000000000000000000000000000005aa23205b5349502d34325d20456e61626c652073746b5345414d20746f206265207573656420666f7220476f7665726e616e63650a0a23232053756d6d6172790a456e61626c652073746b5345414d20766f74696e6720706f77657220746f20626520636f756e74656420696e206164646974696f6e20746f205345414d20616e642065735345414d20766f74696e6720706f776572206f6e205365616d6c65737320676f7665726e616e63652070726f706f73616c732e0a0a232320436f6e7465787420616e64204d6f7469766174696f6e0a5468652073746b5345414d20746f6b656e206973206265696e6720696e74726f64756365642061732070617274206f6620746865205365616d6c65737320746f6b656e6f6d6963732070726f706f73616c206f75746c696e656420696e205b7468697320446973636f7572736520706f73745d2868747470733a2f2f7365616d6c65737370726f746f636f6c2e646973636f757273652e67726f75702f742f67702d61637469766174696e672d7365616d2d746f6b656e6f6d6963732f353835292e205468697320746f6b656e20726570726573656e7473207374616b6564205345414d2077697468696e207468652070726f746f636f6c2e0a0a43757272656e746c792c20746865205365616d6c65737320676f7665726e616e63652073797374656d206f6e6c7920616c6c6f777320766f74696e672077697468205345414d20616e642065735345414d20746f6b656e732e20546869732070726f706f73616c2061696d7320746f207570677261646520746865205365616d6c65737320676f7665726e6f7220636f6e74726163747320746f20656e61626c652073746b5345414d206173206120766f7461626c6520746f6b656e20666f7220676f7665726e616e636520616c6f6e6773696465205345414d20616e642065735345414d2e20546869732075706772616465206d75737420626520696e69746961746564207468726f75676820746865205365616d6c657373206c6f6e6720676f7665726e6f722073696e636520697420696e766f6c76657320612066756e64616d656e74616c206368616e676520746f2074686520676f7665726e616e6365207374727563747572652e0a0a427920696d706c656d656e74696e672074686973206368616e67652c2073746b5345414d20686f6c646572732077696c6c2062652061626c6520746f20706172746963697061746520696e205365616d6c65737320676f7665726e616e63652c20656e737572696e6720746861742075736572732077686f20686176652064656d6f6e7374726174656420746865697220636f6d6d69746d656e7420746f207468652070726f746f636f6c207468726f756768207374616b696e672063616e2068617665206120766f69636520696e206465636973696f6e2d6d616b696e672e0a0a2323205265736f75726365732f5265666572656e6365730a2d2052656c6576616e7420446973636f757273652064697363757373696f6e3a205b686572655d2868747470733a2f2f7365616d6c65737370726f746f636f6c2e646973636f757273652e67726f75702f742f67702d61637469766174696e672d7365616d2d746f6b656e6f6d6963732f353835290a2d20546869732070726f706f73616c206973207072657061726564207769746820746865205b5365616d6c65737320476f7665726e616e63652050726f706f73616c7320746f6f6c735d2868747470733a2f2f6769746875622e636f6d2f7365616d6c6573732d70726f746f636f6c2f676f762d70726f706f73616c73290a2d2050726f706f73616c20616374696f6e7320616e642074657374732063616e20626520666f756e64205b686572655d2868747470733a2f2f6769746875622e636f6d2f7365616d6c6573732d70726f746f636f6c2f676f762d70726f706f73616c732f747265652f6d61696e2f70726f706f73616c732f7369705f34322900000000000000000000000000000000000000000000",
        "nonce": "0x5b",
        "chainId": "0x2105"
      },
      "additionalContracts": [],
      "isFixedGasLimit": false
    }
  ],
  "receipts": [
    {
      "status": "0x1",
      "cumulativeGasUsed": "0x2889fe8",
      "logs": [
        {
          "address": "0x04faa2826dbb38a7a4e9a5e3db26b9e389e761b6",
          "topics": [
            "0x7d84a6263ae0d98d3329bd7b46bb4e8d6f98cd35a7adb45c274c8b7fd5ebd5e0"
          ],
          "data": "0x35416bf3c6a98e73098360e868e5a1d061868a8b7650afeb4bf5cb1b0261bc370000000000000000000000006d0c9128165a7bf2a2072319129d49d8f458fe0a0000000000000000000000000000000000000000000000000000000000000120000000000000000000000000000000000000000000000000000000000000018000000000000000000000000000000000000000000000000000000000000001e000000000000000000000000000000000000000000000000000000000000002800000000000000000000000000000000000000000000000000000000067d4be750000000000000000000000000000000000000000000000000000000067e1ed7500000000000000000000000000000000000000000000000000000000000004a000000000000000000000000000000000000000000000000000000000000000020000000000000000000000008768c789c6df8af1a92d96de823b4f80010db29400000000000000000000000004faa2826dbb38a7a4e9a5e3db26b9e389e761b60000000000000000000000000000000000000000000000000000000000000002000000000000000000000000000000000000000000000000000000000000000000000000000000000000000000000000000000000000000000000000000000000000000000000000000000000000000000000000000000000000000000000002000000000000000000000000000000000000000000000000000000000000004000000000000000000000000000000000000000000000000000000000000000600000000000000000000000000000000000000000000000000000000000000000000000000000000000000000000000000000000000000000000000000000000000000000000000000000000000000000000000000000000000000000000000020000000000000000000000000000000000000000000000000000000000000040000000000000000000000000000000000000000000000000000000000000012000000000000000000000000000000000000000000000000000000000000000a44f1ef286000000000000000000000000c3a36d72be57866ec4751d709b5bef67efa9baef0000000000000000000000000000000000000000000000000000000000000040000000000000000000000000000000000000000000000000000000000000002429b6eca900000000000000000000000073f0849756f6a79c1d536b7abab1e6955f7172a4000000000000000000000000000000000000000000000000000000000000000000000000000000000000000000000000000000000000000000000000000000000000000000000000000000000000000000000000000000a44f1ef286000000000000000000000000c3a36d72be57866ec4751d709b5bef67efa9baef0000000000000000000000000000000000000000000000000000000000000040000000000000000000000000000000000000000000000000000000000000002429b6eca900000000000000000000000073f0849756f6a79c1d536b7abab1e6955f7172a4000000000000000000000000000000000000000000000000000000000000000000000000000000000000000000000000000000000000000000000000000000000000000000000000000000000000000000000000000005aa23205b5349502d34325d20456e61626c652073746b5345414d20746f206265207573656420666f7220476f7665726e616e63650a0a23232053756d6d6172790a456e61626c652073746b5345414d20766f74696e6720706f77657220746f20626520636f756e74656420696e206164646974696f6e20746f205345414d20616e642065735345414d20766f74696e6720706f776572206f6e205365616d6c65737320676f7665726e616e63652070726f706f73616c732e0a0a232320436f6e7465787420616e64204d6f7469766174696f6e0a5468652073746b5345414d20746f6b656e206973206265696e6720696e74726f64756365642061732070617274206f6620746865205365616d6c65737320746f6b656e6f6d6963732070726f706f73616c206f75746c696e656420696e205b7468697320446973636f7572736520706f73745d2868747470733a2f2f7365616d6c65737370726f746f636f6c2e646973636f757273652e67726f75702f742f67702d61637469766174696e672d7365616d2d746f6b656e6f6d6963732f353835292e205468697320746f6b656e20726570726573656e7473207374616b6564205345414d2077697468696e207468652070726f746f636f6c2e0a0a43757272656e746c792c20746865205365616d6c65737320676f7665726e616e63652073797374656d206f6e6c7920616c6c6f777320766f74696e672077697468205345414d20616e642065735345414d20746f6b656e732e20546869732070726f706f73616c2061696d7320746f207570677261646520746865205365616d6c65737320676f7665726e6f7220636f6e74726163747320746f20656e61626c652073746b5345414d206173206120766f7461626c6520746f6b656e20666f7220676f7665726e616e636520616c6f6e6773696465205345414d20616e642065735345414d2e20546869732075706772616465206d75737420626520696e69746961746564207468726f75676820746865205365616d6c657373206c6f6e6720676f7665726e6f722073696e636520697420696e766f6c76657320612066756e64616d656e74616c206368616e676520746f2074686520676f7665726e616e6365207374727563747572652e0a0a427920696d706c656d656e74696e672074686973206368616e67652c2073746b5345414d20686f6c646572732077696c6c2062652061626c6520746f20706172746963697061746520696e205365616d6c65737320676f7665726e616e63652c20656e737572696e6720746861742075736572732077686f20686176652064656d6f6e7374726174656420746865697220636f6d6d69746d656e7420746f207468652070726f746f636f6c207468726f756768207374616b696e672063616e2068617665206120766f69636520696e206465636973696f6e2d6d616b696e672e0a0a2323205265736f75726365732f5265666572656e6365730a2d2052656c6576616e7420446973636f757273652064697363757373696f6e3a205b686572655d2868747470733a2f2f7365616d6c65737370726f746f636f6c2e646973636f757273652e67726f75702f742f67702d61637469766174696e672d7365616d2d746f6b656e6f6d6963732f353835290a2d20546869732070726f706f73616c206973207072657061726564207769746820746865205b5365616d6c65737320476f7665726e616e63652050726f706f73616c7320746f6f6c735d2868747470733a2f2f6769746875622e636f6d2f7365616d6c6573732d70726f746f636f6c2f676f762d70726f706f73616c73290a2d2050726f706f73616c20616374696f6e7320616e642074657374732063616e20626520666f756e64205b686572655d2868747470733a2f2f6769746875622e636f6d2f7365616d6c6573732d70726f746f636f6c2f676f762d70726f706f73616c732f747265652f6d61696e2f70726f706f73616c732f7369705f34322900000000000000000000000000000000000000000000",
          "blockHash": "0xdede926cdb940aab94ffea73ba21475bf750061993dd4b04990beb45e857bb6b",
          "blockNumber": "0x1a3df49",
          "transactionHash": "0xfe25547b2b5829b5093da2be549da13dfd80d7137e615914276d879c62d35840",
          "transactionIndex": "0x82",
          "logIndex": "0x1a1",
          "removed": false
        }
      ],
      "logsBloom": "0x00000000000000000000000000000000000000000000000000000000000000400000000000000000000000000000000000000000000000000000000000000000000000000002000000000000000000000000000000000000000000000000000000000000000000000000000000000000000000000000000000000000000000000000000000010000000000000000000000000000000000000000000000000000080000000000000000000000000000000000000000000000000000000000000200000000000000000000000000000000000000000000000000080000000000000000000000000000000000000000000000000000000000000000000000000000",
      "type": "0x2",
      "transactionHash": "0xfe25547b2b5829b5093da2be549da13dfd80d7137e615914276d879c62d35840",
      "transactionIndex": "0x82",
      "blockHash": "0xdede926cdb940aab94ffea73ba21475bf750061993dd4b04990beb45e857bb6b",
      "blockNumber": "0x1a3df49",
      "gasUsed": "0x93f42",
      "effectiveGasPrice": "0x4287ac",
      "from": "0x6d0c9128165a7bf2a2072319129d49d8f458fe0a",
      "to": "0x04faa2826dbb38a7a4e9a5e3db26b9e389e761b6",
      "contractAddress": null,
      "l1BaseFeeScalar": "0x8dd",
      "l1BlobBaseFee": "0x1a8dcd",
      "l1BlobBaseFeeScalar": "0x101c12",
      "l1Fee": "0x46ddcd9dd",
      "l1GasPrice": "0x1cf29c28",
      "l1GasUsed": "0x3d11"
    }
  ],
  "libraries": [],
  "pending": [],
  "returns": {},
  "timestamp": 1741822838,
  "chain": 8453,
  "commit": "88ce9b1"
}