{
  "transactions": [
    {
      "hash": "0x7536e9b0085c3e44be34c34e6c5fe100664e7a9e502dbcf16c38e90b3c67c011",
      "transactionType": "CALL",
      "contractName": null,
      "contractAddress": "0x8768c789c6df8af1a92d96de823b4f80010db294",
      "function": "propose(address[],uint256[],bytes[],string)",
      "arguments": [
        "[0x1C7a460413dD4e964f96D8dFC56E7223cE88CD85]",
        "[0]",
        "[0xa9059cbb000000000000000000000000a1b5f2cc9b407177cd8a4acf1699fa0b99955a220000000000000000000000000000000000000000000069e10de76676d0800000]",
        "\"# [SIP-27] Protocol Rewards Refresh 4\\n\\n## Summary\\n\\nPlatform reward emissions are ending on August 20th, 2024. Proposing an extension of the platform reward budget by drawing down on the SEAM in the short governor timelock and claiming more SEAM from the master emissions vesting smart contract.\\n\\nProposal for platforms rewards are:\\n- **Continue rewards?** YES\\n- **Schedule?** To be consistent with previous requests, continuing the cadence of 60 days (~2 months) - starting 8/20/24 (ASAP given the governance process timelines). Community re-examination and discussion to occur once a month or as-needed, as reward schedules can be updated/modified by Community Guardian (as of [SIP-7] execution).\\n- **Reward type?** Utilize primarily esSEAM (with a small SEAM budget that will default to esSEAM if not utilized)\\n- **Amount?** Current suggestion is to use 500,000 SEAM from the short governor timelock to be utilized as a two month budget across all existing/to-be-launched markets on Seamless Protocol during this time period\\n\\n\\n## Context and motivation\\n\\n[Rewards refresh #3](https://seamlessprotocol.discourse.group/t/pcp-21-protocol-rewards-refresh-3-base-onchain-summer-is-here/509/11) was launched with the introduction of support from Gauntlet Network for community-level reward optimization analysis. This resulted in immediate impacts to Seamless Protocol, as the protocol grew (to almost $100m TVL) and more effectively was able to utilize rewards. Despite the latest market trends, Seamless TVL has been more robust/resilient to other similar platforms on Base.\\n\\nAs Gauntlet will continue to provide monthly reward optimization recommendations and the platform looks to maintain its position and also grow in certain areas (i.e. ILMs), this proposal suggests another reward budget renewal at the previous budget of 500,000 SEAM (holding steady from the previous request). The DAO will primarily convert 480,000 SEAM to esSEAM, with the remaining 20,000 SEAM available as liquid rewards. If there is any unused SEAM from this 20k, it will also be converted to esSEAM.\\n\\nAs per before, rewards schedules will be based on recommendations from ecosystem partners/contributors, and this represents a maximum 2 month budget (it is possible less rewards are emitted during this time, and a “surplus” is run).\\n\\nSpecifications/Technicals\\nUnder this proposal, the rewards pool for markets on Seamless Protocol will gain an additional 500,000 SEAM budget to be deployed over two months. This SEAM will be sourced from the short governor timelock (and in a corresponding move, the short governor timelock will claim some of the DAO vested SEAM back into the wallet). Per the previously executed SIPs, reward schedules continued to be set by the Guardian Multisig.\\n\\n## Resources/References\\n\\n- Discourse discussion [here](https://seamlessprotocol.discourse.group/t/pcp-protocol-rewards-refresh-4-marching-ahead/542)\\n- This proposal is prepared with the [Seamless Governance Proposals tools](https://github.com/seamless-protocol/gov-proposals)\\n- Proposal actions and tests can be found [here](https://github.com/seamless-protocol/gov-proposals/tree/main/proposals/sip_27_protocol_rewards_refresh)\\n\""
      ],
      "transaction": {
        "from": "0x6d0c9128165a7bf2a2072319129d49d8f458fe0a",
        "to": "0x8768c789c6df8af1a92d96de823b4f80010db294",
        "gas": "0x99cc2",
        "value": "0x0",
        "input": "0x7d5e81e2000000000000000000000000000000000000000000000000000000000000008000000000000000000000000000000000000000000000000000000000000000c0000000000000000000000000000000000000000000000000000000000000010000000000000000000000000000000000000000000000000000000000000001c000000000000000000000000000000000000000000000000000000000000000010000000000000000000000001c7a460413dd4e964f96d8dfc56e7223ce88cd8500000000000000000000000000000000000000000000000000000000000000010000000000000000000000000000000000000000000000000000000000000000000000000000000000000000000000000000000000000000000000000000000100000000000000000000000000000000000000000000000000000000000000200000000000000000000000000000000000000000000000000000000000000044a9059cbb000000000000000000000000a1b5f2cc9b407177cd8a4acf1699fa0b99955a220000000000000000000000000000000000000000000069e10de76676d0800000000000000000000000000000000000000000000000000000000000000000000000000000000000000000000000000000000000000000000000000c7b23205b5349502d32375d2050726f746f636f6c2052657761726473205265667265736820340a0a23232053756d6d6172790a0a506c6174666f726d2072657761726420656d697373696f6e732061726520656e64696e67206f6e2041756775737420323074682c20323032342e2050726f706f73696e6720616e20657874656e73696f6e206f662074686520706c6174666f726d20726577617264206275646765742062792064726177696e6720646f776e206f6e20746865205345414d20696e207468652073686f727420676f7665726e6f722074696d656c6f636b20616e6420636c61696d696e67206d6f7265205345414d2066726f6d20746865206d617374657220656d697373696f6e732076657374696e6720736d61727420636f6e74726163742e0a0a50726f706f73616c20666f7220706c6174666f726d732072657761726473206172653a0a2d202a2a436f6e74696e756520726577617264733f2a2a205945530a2d202a2a5363686564756c653f2a2a20546f20626520636f6e73697374656e7420776974682070726576696f75732072657175657374732c20636f6e74696e75696e672074686520636164656e6365206f66203630206461797320287e32206d6f6e74687329202d207374617274696e6720382f32302f323420284153415020676976656e2074686520676f7665726e616e63652070726f636573732074696d656c696e6573292e20436f6d6d756e6974792072652d6578616d696e6174696f6e20616e642064697363757373696f6e20746f206f63637572206f6e63652061206d6f6e7468206f722061732d6e65656465642c20617320726577617264207363686564756c65732063616e20626520757064617465642f6d6f64696669656420627920436f6d6d756e69747920477561726469616e20286173206f66205b5349502d375d20657865637574696f6e292e0a2d202a2a52657761726420747970653f2a2a205574696c697a65207072696d6172696c792065735345414d202877697468206120736d616c6c205345414d2062756467657420746861742077696c6c2064656661756c7420746f2065735345414d206966206e6f74207574696c697a6564290a2d202a2a416d6f756e743f2a2a2043757272656e742073756767657374696f6e20697320746f20757365203530302c303030205345414d2066726f6d207468652073686f727420676f7665726e6f722074696d656c6f636b20746f206265207574696c697a656420617320612074776f206d6f6e746820627564676574206163726f737320616c6c206578697374696e672f746f2d62652d6c61756e63686564206d61726b657473206f6e205365616d6c6573732050726f746f636f6c20647572696e6720746869732074696d6520706572696f640a0a0a232320436f6e7465787420616e64206d6f7469766174696f6e0a0a5b5265776172647320726566726573682023335d2868747470733a2f2f7365616d6c65737370726f746f636f6c2e646973636f757273652e67726f75702f742f7063702d32312d70726f746f636f6c2d726577617264732d726566726573682d332d626173652d6f6e636861696e2d73756d6d65722d69732d686572652f3530392f31312920776173206c61756e6368656420776974682074686520696e74726f64756374696f6e206f6620737570706f72742066726f6d204761756e746c6574204e6574776f726b20666f7220636f6d6d756e6974792d6c6576656c20726577617264206f7074696d697a6174696f6e20616e616c797369732e205468697320726573756c74656420696e20696d6d65646961746520696d706163747320746f205365616d6c6573732050726f746f636f6c2c206173207468652070726f746f636f6c20677265772028746f20616c6d6f737420243130306d2054564c2920616e64206d6f7265206566666563746976656c79207761732061626c6520746f207574696c697a6520726577617264732e204465737069746520746865206c6174657374206d61726b6574207472656e64732c205365616d6c6573732054564c20686173206265656e206d6f726520726f627573742f726573696c69656e7420746f206f746865722073696d696c617220706c6174666f726d73206f6e20426173652e0a0a4173204761756e746c65742077696c6c20636f6e74696e756520746f2070726f76696465206d6f6e74686c7920726577617264206f7074696d697a6174696f6e207265636f6d6d656e646174696f6e7320616e642074686520706c6174666f726d206c6f6f6b7320746f206d61696e7461696e2069747320706f736974696f6e20616e6420616c736f2067726f7720696e206365727461696e2061726561732028692e652e20494c4d73292c20746869732070726f706f73616c20737567676573747320616e6f7468657220726577617264206275646765742072656e6577616c206174207468652070726576696f757320627564676574206f66203530302c303030205345414d2028686f6c64696e67207374656164792066726f6d207468652070726576696f75732072657175657374292e205468652044414f2077696c6c207072696d6172696c7920636f6e76657274203438302c303030205345414d20746f2065735345414d2c2077697468207468652072656d61696e696e672032302c303030205345414d20617661696c61626c65206173206c697175696420726577617264732e20496620746865726520697320616e7920756e75736564205345414d2066726f6d20746869732032306b2c2069742077696c6c20616c736f20626520636f6e76657274656420746f2065735345414d2e0a0a417320706572206265666f72652c2072657761726473207363686564756c65732077696c6c206265206261736564206f6e207265636f6d6d656e646174696f6e732066726f6d2065636f73797374656d20706172746e6572732f636f6e7472696275746f72732c20616e64207468697320726570726573656e74732061206d6178696d756d2032206d6f6e7468206275646765742028697420697320706f737369626c65206c65737320726577617264732061726520656d697474656420647572696e6720746869732074696d652c20616e64206120e2809c737572706c7573e2809d2069732072756e292e0a0a53706563696669636174696f6e732f546563686e6963616c730a556e64657220746869732070726f706f73616c2c20746865207265776172647320706f6f6c20666f72206d61726b657473206f6e205365616d6c6573732050726f746f636f6c2077696c6c206761696e20616e206164646974696f6e616c203530302c303030205345414d2062756467657420746f206265206465706c6f796564206f7665722074776f206d6f6e7468732e2054686973205345414d2077696c6c20626520736f75726365642066726f6d207468652073686f727420676f7665726e6f722074696d656c6f636b2028616e6420696e206120636f72726573706f6e64696e67206d6f76652c207468652073686f727420676f7665726e6f722074696d656c6f636b2077696c6c20636c61696d20736f6d65206f66207468652044414f20766573746564205345414d206261636b20696e746f207468652077616c6c6574292e20506572207468652070726576696f75736c7920657865637574656420534950732c20726577617264207363686564756c657320636f6e74696e75656420746f206265207365742062792074686520477561726469616e204d756c74697369672e0a0a2323205265736f75726365732f5265666572656e6365730a0a2d20446973636f757273652064697363757373696f6e205b686572655d2868747470733a2f2f7365616d6c65737370726f746f636f6c2e646973636f757273652e67726f75702f742f7063702d70726f746f636f6c2d726577617264732d726566726573682d342d6d61726368696e672d61686561642f353432290a2d20546869732070726f706f73616c206973207072657061726564207769746820746865205b5365616d6c65737320476f7665726e616e63652050726f706f73616c7320746f6f6c735d2868747470733a2f2f6769746875622e636f6d2f7365616d6c6573732d70726f746f636f6c2f676f762d70726f706f73616c73290a2d2050726f706f73616c20616374696f6e7320616e642074657374732063616e20626520666f756e64205b686572655d2868747470733a2f2f6769746875622e636f6d2f7365616d6c6573732d70726f746f636f6c2f676f762d70726f706f73616c732f747265652f6d61696e2f70726f706f73616c732f7369705f32375f70726f746f636f6c5f726577617264735f72656672657368290a0000000000",
        "nonce": "0x39",
        "chainId": "0x2105"
      },
      "additionalContracts": [],
      "isFixedGasLimit": false
    }
  ],
  "receipts": [
    {
      "status": "0x1",
      "cumulativeGasUsed": "0x69292",
      "logs": [
        {
          "address": "0x8768c789c6df8af1a92d96de823b4f80010db294",
          "topics": [
            "0x7d84a6263ae0d98d3329bd7b46bb4e8d6f98cd35a7adb45c274c8b7fd5ebd5e0"
          ],
          "data": "0xa650610b0d56d2befffe6689b6129ec421ccf1371a382553f8a38f4d62272f3c0000000000000000000000006d0c9128165a7bf2a2072319129d49d8f458fe0a0000000000000000000000000000000000000000000000000000000000000120000000000000000000000000000000000000000000000000000000000000016000000000000000000000000000000000000000000000000000000000000001a000000000000000000000000000000000000000000000000000000000000002000000000000000000000000000000000000000000000000000000000066c28ea10000000000000000000000000000000000000000000000000000000066c6832100000000000000000000000000000000000000000000000000000000000002c000000000000000000000000000000000000000000000000000000000000000010000000000000000000000001c7a460413dd4e964f96d8dfc56e7223ce88cd8500000000000000000000000000000000000000000000000000000000000000010000000000000000000000000000000000000000000000000000000000000000000000000000000000000000000000000000000000000000000000000000000100000000000000000000000000000000000000000000000000000000000000200000000000000000000000000000000000000000000000000000000000000000000000000000000000000000000000000000000000000000000000000000000100000000000000000000000000000000000000000000000000000000000000200000000000000000000000000000000000000000000000000000000000000044a9059cbb000000000000000000000000a1b5f2cc9b407177cd8a4acf1699fa0b99955a220000000000000000000000000000000000000000000069e10de76676d0800000000000000000000000000000000000000000000000000000000000000000000000000000000000000000000000000000000000000000000000000c7b23205b5349502d32375d2050726f746f636f6c2052657761726473205265667265736820340a0a23232053756d6d6172790a0a506c6174666f726d2072657761726420656d697373696f6e732061726520656e64696e67206f6e2041756775737420323074682c20323032342e2050726f706f73696e6720616e20657874656e73696f6e206f662074686520706c6174666f726d20726577617264206275646765742062792064726177696e6720646f776e206f6e20746865205345414d20696e207468652073686f727420676f7665726e6f722074696d656c6f636b20616e6420636c61696d696e67206d6f7265205345414d2066726f6d20746865206d617374657220656d697373696f6e732076657374696e6720736d61727420636f6e74726163742e0a0a50726f706f73616c20666f7220706c6174666f726d732072657761726473206172653a0a2d202a2a436f6e74696e756520726577617264733f2a2a205945530a2d202a2a5363686564756c653f2a2a20546f20626520636f6e73697374656e7420776974682070726576696f75732072657175657374732c20636f6e74696e75696e672074686520636164656e6365206f66203630206461797320287e32206d6f6e74687329202d207374617274696e6720382f32302f323420284153415020676976656e2074686520676f7665726e616e63652070726f636573732074696d656c696e6573292e20436f6d6d756e6974792072652d6578616d696e6174696f6e20616e642064697363757373696f6e20746f206f63637572206f6e63652061206d6f6e7468206f722061732d6e65656465642c20617320726577617264207363686564756c65732063616e20626520757064617465642f6d6f64696669656420627920436f6d6d756e69747920477561726469616e20286173206f66205b5349502d375d20657865637574696f6e292e0a2d202a2a52657761726420747970653f2a2a205574696c697a65207072696d6172696c792065735345414d202877697468206120736d616c6c205345414d2062756467657420746861742077696c6c2064656661756c7420746f2065735345414d206966206e6f74207574696c697a6564290a2d202a2a416d6f756e743f2a2a2043757272656e742073756767657374696f6e20697320746f20757365203530302c303030205345414d2066726f6d207468652073686f727420676f7665726e6f722074696d656c6f636b20746f206265207574696c697a656420617320612074776f206d6f6e746820627564676574206163726f737320616c6c206578697374696e672f746f2d62652d6c61756e63686564206d61726b657473206f6e205365616d6c6573732050726f746f636f6c20647572696e6720746869732074696d6520706572696f640a0a0a232320436f6e7465787420616e64206d6f7469766174696f6e0a0a5b5265776172647320726566726573682023335d2868747470733a2f2f7365616d6c65737370726f746f636f6c2e646973636f757273652e67726f75702f742f7063702d32312d70726f746f636f6c2d726577617264732d726566726573682d332d626173652d6f6e636861696e2d73756d6d65722d69732d686572652f3530392f31312920776173206c61756e6368656420776974682074686520696e74726f64756374696f6e206f6620737570706f72742066726f6d204761756e746c6574204e6574776f726b20666f7220636f6d6d756e6974792d6c6576656c20726577617264206f7074696d697a6174696f6e20616e616c797369732e205468697320726573756c74656420696e20696d6d65646961746520696d706163747320746f205365616d6c6573732050726f746f636f6c2c206173207468652070726f746f636f6c20677265772028746f20616c6d6f737420243130306d2054564c2920616e64206d6f7265206566666563746976656c79207761732061626c6520746f207574696c697a6520726577617264732e204465737069746520746865206c6174657374206d61726b6574207472656e64732c205365616d6c6573732054564c20686173206265656e206d6f726520726f627573742f726573696c69656e7420746f206f746865722073696d696c617220706c6174666f726d73206f6e20426173652e0a0a4173204761756e746c65742077696c6c20636f6e74696e756520746f2070726f76696465206d6f6e74686c7920726577617264206f7074696d697a6174696f6e207265636f6d6d656e646174696f6e7320616e642074686520706c6174666f726d206c6f6f6b7320746f206d61696e7461696e2069747320706f736974696f6e20616e6420616c736f2067726f7720696e206365727461696e2061726561732028692e652e20494c4d73292c20746869732070726f706f73616c20737567676573747320616e6f7468657220726577617264206275646765742072656e6577616c206174207468652070726576696f757320627564676574206f66203530302c303030205345414d2028686f6c64696e67207374656164792066726f6d207468652070726576696f75732072657175657374292e205468652044414f2077696c6c207072696d6172696c7920636f6e76657274203438302c303030205345414d20746f2065735345414d2c2077697468207468652072656d61696e696e672032302c303030205345414d20617661696c61626c65206173206c697175696420726577617264732e20496620746865726520697320616e7920756e75736564205345414d2066726f6d20746869732032306b2c2069742077696c6c20616c736f20626520636f6e76657274656420746f2065735345414d2e0a0a417320706572206265666f72652c2072657761726473207363686564756c65732077696c6c206265206261736564206f6e207265636f6d6d656e646174696f6e732066726f6d2065636f73797374656d20706172746e6572732f636f6e7472696275746f72732c20616e64207468697320726570726573656e74732061206d6178696d756d2032206d6f6e7468206275646765742028697420697320706f737369626c65206c65737320726577617264732061726520656d697474656420647572696e6720746869732074696d652c20616e64206120e2809c737572706c7573e2809d2069732072756e292e0a0a53706563696669636174696f6e732f546563686e6963616c730a556e64657220746869732070726f706f73616c2c20746865207265776172647320706f6f6c20666f72206d61726b657473206f6e205365616d6c6573732050726f746f636f6c2077696c6c206761696e20616e206164646974696f6e616c203530302c303030205345414d2062756467657420746f206265206465706c6f796564206f7665722074776f206d6f6e7468732e2054686973205345414d2077696c6c20626520736f75726365642066726f6d207468652073686f727420676f7665726e6f722074696d656c6f636b2028616e6420696e206120636f72726573706f6e64696e67206d6f76652c207468652073686f727420676f7665726e6f722074696d656c6f636b2077696c6c20636c61696d20736f6d65206f66207468652044414f20766573746564205345414d206261636b20696e746f207468652077616c6c6574292e20506572207468652070726576696f75736c7920657865637574656420534950732c20726577617264207363686564756c657320636f6e74696e75656420746f206265207365742062792074686520477561726469616e204d756c74697369672e0a0a2323205265736f75726365732f5265666572656e6365730a0a2d20446973636f757273652064697363757373696f6e205b686572655d2868747470733a2f2f7365616d6c65737370726f746f636f6c2e646973636f757273652e67726f75702f742f7063702d70726f746f636f6c2d726577617264732d726566726573682d342d6d61726368696e672d61686561642f353432290a2d20546869732070726f706f73616c206973207072657061726564207769746820746865205b5365616d6c65737320476f7665726e616e63652050726f706f73616c7320746f6f6c735d2868747470733a2f2f6769746875622e636f6d2f7365616d6c6573732d70726f746f636f6c2f676f762d70726f706f73616c73290a2d2050726f706f73616c20616374696f6e7320616e642074657374732063616e20626520666f756e64205b686572655d2868747470733a2f2f6769746875622e636f6d2f7365616d6c6573732d70726f746f636f6c2f676f762d70726f706f73616c732f747265652f6d61696e2f70726f706f73616c732f7369705f32375f70726f746f636f6c5f726577617264735f72656672657368290a0000000000",
          "blockHash": "0x4a06ca00f5287c4ad050fe96f21ad0ac2758429049d25fbf9b059c297ffcdeea",
          "blockNumber": "0x1138707",
          "transactionHash": "0x7536e9b0085c3e44be34c34e6c5fe100664e7a9e502dbcf16c38e90b3c67c011",
          "transactionIndex": "0x0",
          "logIndex": "0x0",
          "removed": false
        }
      ],
      "logsBloom": "0x00000000000000000000000000000000000000000000000000000000000000000000000000000000000000000000000200000000000000000000000000000000000000000002000000000000000000000000000000000000000000000000000000000000000000000000000000000000000000000000000000400000000000000000000000000000000000000000000000000000000000000000000000000000080000000000000000000000000000000000000000000000000000020000000200000000000000000000000000000000000000000000000000000000000000000000000000000000000000000000000000000000000000000000000000000000",
      "type": "0x2",
      "transactionHash": "0x7536e9b0085c3e44be34c34e6c5fe100664e7a9e502dbcf16c38e90b3c67c011",
      "transactionIndex": "0x0",
      "blockHash": "0x4a06ca00f5287c4ad050fe96f21ad0ac2758429049d25fbf9b059c297ffcdeea",
      "blockNumber": "0x1138707",
      "gasUsed": "0x69292",
      "effectiveGasPrice": "0x1",
      "blobGasUsed": "0x0",
      "from": "0x6d0c9128165a7bf2a2072319129d49d8f458fe0a",
      "to": "0x8768c789c6df8af1a92d96de823b4f80010db294",
      "contractAddress": null
    }
  ],
  "libraries": [],
  "pending": [],
  "returns": {},
  "timestamp": 1723853730,
  "chain": 8453,
  "commit": "4c950db"
}