{
  "transactions": [
    {
      "hash": "0x24d93ea6ae2f68f7fe15a3a1b89b67c53a370e2b586b737dbbcce98ffd4469c9",
      "transactionType": "CALL",
      "contractName": null,
      "contractAddress": "0x04faa2826dbb38a7a4e9a5e3db26b9e389e761b6",
      "function": "propose(address[],uint256[],bytes[],string)",
      "arguments": [
        "[0x998e44232BEF4F8B033e5A5175BDC97F2B10d5e5]",
        "[0]",
        "[0x4f1ef28600000000000000000000000078423bfc5053102a3087daa978c2117a6809fbb100000000000000000000000000000000000000000000000000000000000000400000000000000000000000000000000000000000000000000000000000000000]",
        "\"# [SIP-28] Bugfix esSEAM claim\\n\\n## Summary\\n\\nResolves issue where some users are not able to claim their vested SEAM.\\n\\n## Context and motivation\\n\\nA bug was discovered in the esSEAM contract which can prevent a user from claiming their vested SEAM from the esSEAM contract. The pull request for the fix can be found [here](https://github.com/seamless-protocol/governance/pull/68).\\n\\n## Resources/References\\n\\n- Discourse discussion [here](https://seamlessprotocol.discourse.group/t/gp-bugfix-esseam-claim/547)\\n- This proposal is prepared with the [Seamless Governance Proposals tools](https://github.com/seamless-protocol/gov-proposals)\\n- Proposal actions and tests can be found [here](https://github.com/seamless-protocol/gov-proposals/tree/main/proposals/sip_28_upgrading_escrow_seam)\\n\""
      ],
      "transaction": {
        "from": "0x6d0c9128165a7bf2a2072319129d49d8f458fe0a",
        "to": "0x04faa2826dbb38a7a4e9a5e3db26b9e389e761b6",
        "gas": "0x820ce",
        "value": "0x0",
        "input": "0x7d5e81e2000000000000000000000000000000000000000000000000000000000000008000000000000000000000000000000000000000000000000000000000000000c0000000000000000000000000000000000000000000000000000000000000010000000000000000000000000000000000000000000000000000000000000001e00000000000000000000000000000000000000000000000000000000000000001000000000000000000000000998e44232bef4f8b033e5a5175bdc97f2b10d5e5000000000000000000000000000000000000000000000000000000000000000100000000000000000000000000000000000000000000000000000000000000000000000000000000000000000000000000000000000000000000000000000001000000000000000000000000000000000000000000000000000000000000002000000000000000000000000000000000000000000000000000000000000000644f1ef28600000000000000000000000078423bfc5053102a3087daa978c2117a6809fbb10000000000000000000000000000000000000000000000000000000000000040000000000000000000000000000000000000000000000000000000000000000000000000000000000000000000000000000000000000000000000000000000000000000000000000000000000000000000000000000000000000030f23205b5349502d32385d204275676669782065735345414d20636c61696d0a0a23232053756d6d6172790a0a5265736f6c76657320697373756520776865726520736f6d6520757365727320617265206e6f742061626c6520746f20636c61696d20746865697220766573746564205345414d2e0a0a232320436f6e7465787420616e64206d6f7469766174696f6e0a0a41206275672077617320646973636f766572656420696e207468652065735345414d20636f6e74726163742077686963682063616e2070726576656e74206120757365722066726f6d20636c61696d696e6720746865697220766573746564205345414d2066726f6d207468652065735345414d20636f6e74726163742e205468652070756c6c207265717565737420666f7220746865206669782063616e20626520666f756e64205b686572655d2868747470733a2f2f6769746875622e636f6d2f7365616d6c6573732d70726f746f636f6c2f676f7665726e616e63652f70756c6c2f3638292e0a0a2323205265736f75726365732f5265666572656e6365730a0a2d20446973636f757273652064697363757373696f6e205b686572655d2868747470733a2f2f7365616d6c65737370726f746f636f6c2e646973636f757273652e67726f75702f742f67702d6275676669782d65737365616d2d636c61696d2f353437290a2d20546869732070726f706f73616c206973207072657061726564207769746820746865205b5365616d6c65737320476f7665726e616e63652050726f706f73616c7320746f6f6c735d2868747470733a2f2f6769746875622e636f6d2f7365616d6c6573732d70726f746f636f6c2f676f762d70726f706f73616c73290a2d2050726f706f73616c20616374696f6e7320616e642074657374732063616e20626520666f756e64205b686572655d2868747470733a2f2f6769746875622e636f6d2f7365616d6c6573732d70726f746f636f6c2f676f762d70726f706f73616c732f747265652f6d61696e2f70726f706f73616c732f7369705f32385f757067726164696e675f657363726f775f7365616d290a0000000000000000000000000000000000",
        "nonce": "0x3d",
        "chainId": "0x2105"
      },
      "additionalContracts": [],
      "isFixedGasLimit": false
    }
  ],
  "receipts": [
    {
      "status": "0x1",
      "cumulativeGasUsed": "0x13f2230",
      "logs": [
        {
          "address": "0x04faa2826dbb38a7a4e9a5e3db26b9e389e761b6",
          "topics": [
            "0x7d84a6263ae0d98d3329bd7b46bb4e8d6f98cd35a7adb45c274c8b7fd5ebd5e0"
          ],
          "data": "0xce556af1468e741a7a5f4cac2125c26d8fd5b277b0d70c67e6a29d15823dbe6a0000000000000000000000006d0c9128165a7bf2a2072319129d49d8f458fe0a0000000000000000000000000000000000000000000000000000000000000120000000000000000000000000000000000000000000000000000000000000016000000000000000000000000000000000000000000000000000000000000001a000000000000000000000000000000000000000000000000000000000000002000000000000000000000000000000000000000000000000000000000066e33a890000000000000000000000000000000000000000000000000000000066f0698900000000000000000000000000000000000000000000000000000000000002e00000000000000000000000000000000000000000000000000000000000000001000000000000000000000000998e44232bef4f8b033e5a5175bdc97f2b10d5e5000000000000000000000000000000000000000000000000000000000000000100000000000000000000000000000000000000000000000000000000000000000000000000000000000000000000000000000000000000000000000000000001000000000000000000000000000000000000000000000000000000000000002000000000000000000000000000000000000000000000000000000000000000000000000000000000000000000000000000000000000000000000000000000001000000000000000000000000000000000000000000000000000000000000002000000000000000000000000000000000000000000000000000000000000000644f1ef28600000000000000000000000078423bfc5053102a3087daa978c2117a6809fbb10000000000000000000000000000000000000000000000000000000000000040000000000000000000000000000000000000000000000000000000000000000000000000000000000000000000000000000000000000000000000000000000000000000000000000000000000000000000000000000000000000030f23205b5349502d32385d204275676669782065735345414d20636c61696d0a0a23232053756d6d6172790a0a5265736f6c76657320697373756520776865726520736f6d6520757365727320617265206e6f742061626c6520746f20636c61696d20746865697220766573746564205345414d2e0a0a232320436f6e7465787420616e64206d6f7469766174696f6e0a0a41206275672077617320646973636f766572656420696e207468652065735345414d20636f6e74726163742077686963682063616e2070726576656e74206120757365722066726f6d20636c61696d696e6720746865697220766573746564205345414d2066726f6d207468652065735345414d20636f6e74726163742e205468652070756c6c207265717565737420666f7220746865206669782063616e20626520666f756e64205b686572655d2868747470733a2f2f6769746875622e636f6d2f7365616d6c6573732d70726f746f636f6c2f676f7665726e616e63652f70756c6c2f3638292e0a0a2323205265736f75726365732f5265666572656e6365730a0a2d20446973636f757273652064697363757373696f6e205b686572655d2868747470733a2f2f7365616d6c65737370726f746f636f6c2e646973636f757273652e67726f75702f742f67702d6275676669782d65737365616d2d636c61696d2f353437290a2d20546869732070726f706f73616c206973207072657061726564207769746820746865205b5365616d6c65737320476f7665726e616e63652050726f706f73616c7320746f6f6c735d2868747470733a2f2f6769746875622e636f6d2f7365616d6c6573732d70726f746f636f6c2f676f762d70726f706f73616c73290a2d2050726f706f73616c20616374696f6e7320616e642074657374732063616e20626520666f756e64205b686572655d2868747470733a2f2f6769746875622e636f6d2f7365616d6c6573732d70726f746f636f6c2f676f762d70726f706f73616c732f747265652f6d61696e2f70726f706f73616c732f7369705f32385f757067726164696e675f657363726f775f7365616d290a0000000000000000000000000000000000",
          "blockHash": "0x87bd0cbcba73d5d436f94b33dd9092dfcbf95ae0e1807fb6047de9b1c8da2ff1",
          "blockNumber": "0x12b1d53",
          "transactionHash": "0x24d93ea6ae2f68f7fe15a3a1b89b67c53a370e2b586b737dbbcce98ffd4469c9",
          "transactionIndex": "0x55",
          "logIndex": "0x124",
          "removed": false
        }
      ],
      "logsBloom": "0x00000000000000000000000000000000000000000000000000000000000000400000000000000000000000000000000000000000000000000000000000000000000000000002000000000000000000000000000000000000000000000000000000000000000000000000000000000000000000000000000000000000000000000000000000010000000000000000000000000000000000000000000000000000080000000000000000000000000000000000000000000000000000000000000200000000000000000000000000000000000000000000000000080000000000000000000000000000000000000000000000000000000000000000000000000000",
      "type": "0x2",
      "transactionHash": "0x24d93ea6ae2f68f7fe15a3a1b89b67c53a370e2b586b737dbbcce98ffd4469c9",
      "transactionIndex": "0x55",
      "blockHash": "0x87bd0cbcba73d5d436f94b33dd9092dfcbf95ae0e1807fb6047de9b1c8da2ff1",
      "blockNumber": "0x12b1d53",
      "gasUsed": "0x5e278",
      "effectiveGasPrice": "0x7c47d9",
      "from": "0x6d0c9128165a7bf2a2072319129d49d8f458fe0a",
      "to": "0x04faa2826dbb38a7a4e9a5e3db26b9e389e761b6",
      "contractAddress": null,
      "l1BaseFeeScalar": "0x8dd",
      "l1BlobBaseFee": "0x1",
      "l1BlobBaseFeeScalar": "0x101c12",
      "l1Fee": "0x1930e990be",
      "l1GasPrice": "0x11dc6650e",
      "l1GasUsed": "0x26d9"
    }
  ],
  "libraries": [],
  "pending": [],
  "returns": {},
  "timestamp": 1725994895,
  "chain": 8453,
  "commit": "85752f0"
}