{
  "transactions": [
    {
      "hash": "0xdf1452e642ea02fa8e5d40f967d0f3e199a208a62dbf9359d06ac7f24c8a733d",
      "transactionType": "CALL",
      "contractName": null,
      "contractAddress": "0x8768c789c6df8af1a92d96de823b4f80010db294",
      "function": "propose(address[],uint256[],bytes[],string)",
      "arguments": [
        "[0x1C7a460413dD4e964f96D8dFC56E7223cE88CD85]",
        "[0]",
        "[0xa9059cbb000000000000000000000000a1b5f2cc9b407177cd8a4acf1699fa0b99955a220000000000000000000000000000000000000000000014a0d4ac3d19eb618000]",
        "# [SIP-41] Compensation for 3x ETH ILM Liquidation Event\\n\\n\\n## Summary\\n\\nOn February 2, 2025, the 3x ETH ILM experienced a rapid liquidation due to extreme market volatility, causing additional losses beyond normal 3x leverage drawdowns. This proposal seeks to compensate affected users with esSEAM tokens at 105% of the liquidation penalty incurred, using a reference price of $0.5573 per esSEAM. Only addresses eligible for at least 1 esSEAM will receive compensation. The total SEAM budget will be sent to the Seamless Guardian for distribution according to the provided spreadsheet and Dune query (see Discourse).\\n\\n## Context and Motivation\\n\\nThe incident occurred when ETH prices dropped approximately 30% in under 5 minutes. High DEX slippage prevented proper ILM rebalancing, triggering a protective liquidation to avoid bad debt. The impact affected approximately 701 users:\\n\\n- Standard losses: Users faced ~60% (3x) losses from the ETH price drop\\n- Additional protocol-level liquidation losses affected small accounts ($85 average loss), top 10 depositors ($5.2k each), and mid-level users\\n\\nThe compensation structure includes:\\n\\n- Pro-rata distribution based on each address\\'s percentage of liquidation-specific losses\\n- 105% coverage in esSEAM to account for vesting and reduced liquidity\\n- 12-month vesting schedule to ensure long-term alignment\\n\\nThis compensation is explicitly a one-off event and does not create a binding precedent. The scenario was extraordinarily rare, but compensation is warranted due to the protocol-level fault to maintain user confidence.\\n\\n## Resources/References\\n\\n- Relevant Discouse discussion: https://seamlessprotocol.discourse.group/t/proposal-compensation-for-3x-eth-ilm-liquidation-event/855/10 \\n- This proposal is prepared with the [Seamless Governance Proposals tools](https://github.com/seamless-protocol/gov-proposals)\\n- Proposal actions and tests can be found [here](https://github.com/seamless-protocol/gov-proposals/tree/main/proposals/sip_41)"
      ],
      "transaction": {
        "from": "0x6d0c9128165a7bf2a2072319129d49d8f458fe0a",
        "to": "0x8768c789c6df8af1a92d96de823b4f80010db294",
        "gas": "0x881b0",
        "value": "0x0",
        "input": "0x7d5e81e2000000000000000000000000000000000000000000000000000000000000008000000000000000000000000000000000000000000000000000000000000000c0000000000000000000000000000000000000000000000000000000000000010000000000000000000000000000000000000000000000000000000000000001c000000000000000000000000000000000000000000000000000000000000000010000000000000000000000001c7a460413dd4e964f96d8dfc56e7223ce88cd8500000000000000000000000000000000000000000000000000000000000000010000000000000000000000000000000000000000000000000000000000000000000000000000000000000000000000000000000000000000000000000000000100000000000000000000000000000000000000000000000000000000000000200000000000000000000000000000000000000000000000000000000000000044a9059cbb000000000000000000000000a1b5f2cc9b407177cd8a4acf1699fa0b99955a220000000000000000000000000000000000000000000014a0d4ac3d19eb6180000000000000000000000000000000000000000000000000000000000000000000000000000000000000000000000000000000000000000000000007c823205b5349502d34315d20436f6d70656e736174696f6e20666f722033782045544820494c4d204c69717569646174696f6e204576656e740a0a0a23232053756d6d6172790a0a4f6e20466562727561727920322c20323032352c207468652033782045544820494c4d20657870657269656e6365642061207261706964206c69717569646174696f6e2064756520746f2065787472656d65206d61726b657420766f6c6174696c6974792c2063617573696e67206164646974696f6e616c206c6f73736573206265796f6e64206e6f726d616c203378206c657665726167652064726177646f776e732e20546869732070726f706f73616c207365656b7320746f20636f6d70656e7361746520616666656374656420757365727320776974682065735345414d20746f6b656e732061742031303525206f6620746865206c69717569646174696f6e2070656e616c747920696e6375727265642c207573696e672061207265666572656e6365207072696365206f662024302e35353733207065722065735345414d2e204f6e6c792061646472657373657320656c696769626c6520666f72206174206c6561737420312065735345414d2077696c6c207265636569766520636f6d70656e736174696f6e2e2054686520746f74616c205345414d206275646765742077696c6c2062652073656e7420746f20746865205365616d6c65737320477561726469616e20666f7220646973747269627574696f6e206163636f7264696e6720746f207468652070726f766964656420737072656164736865657420616e642044756e65207175657279202873656520446973636f75727365292e0a0a232320436f6e7465787420616e64204d6f7469766174696f6e0a0a54686520696e636964656e74206f63637572726564207768656e20455448207072696365732064726f7070656420617070726f78696d6174656c792033302520696e20756e6465722035206d696e757465732e20486967682044455820736c6970706167652070726576656e7465642070726f70657220494c4d20726562616c616e63696e672c2074726967676572696e6720612070726f74656374697665206c69717569646174696f6e20746f2061766f69642062616420646562742e2054686520696d7061637420616666656374656420617070726f78696d6174656c79203730312075736572733a0a0a2d205374616e64617264206c6f737365733a205573657273206661636564207e3630252028337829206c6f737365732066726f6d20746865204554482070726963652064726f700a2d204164646974696f6e616c2070726f746f636f6c2d6c6576656c206c69717569646174696f6e206c6f7373657320616666656374656420736d616c6c206163636f756e747320282438352061766572616765206c6f7373292c20746f70203130206465706f7369746f7273202824352e326b2065616368292c20616e64206d69642d6c6576656c2075736572730a0a54686520636f6d70656e736174696f6e2073747275637475726520696e636c756465733a0a0a2d2050726f2d7261746120646973747269627574696f6e206261736564206f6e2065616368206164647265737327732070657263656e74616765206f66206c69717569646174696f6e2d7370656369666963206c6f737365730a2d203130352520636f76657261676520696e2065735345414d20746f206163636f756e7420666f722076657374696e6720616e642072656475636564206c69717569646974790a2d2031322d6d6f6e74682076657374696e67207363686564756c6520746f20656e73757265206c6f6e672d7465726d20616c69676e6d656e740a0a5468697320636f6d70656e736174696f6e206973206578706c696369746c792061206f6e652d6f6666206576656e7420616e6420646f6573206e6f742063726561746520612062696e64696e6720707265636564656e742e20546865207363656e6172696f207761732065787472616f7264696e6172696c7920726172652c2062757420636f6d70656e736174696f6e2069732077617272616e7465642064756520746f207468652070726f746f636f6c2d6c6576656c206661756c7420746f206d61696e7461696e207573657220636f6e666964656e63652e0a0a2323205265736f75726365732f5265666572656e6365730a0a2d2052656c6576616e7420446973636f7573652064697363757373696f6e3a2068747470733a2f2f7365616d6c65737370726f746f636f6c2e646973636f757273652e67726f75702f742f70726f706f73616c2d636f6d70656e736174696f6e2d666f722d33782d6574682d696c6d2d6c69717569646174696f6e2d6576656e742f3835352f3130200a2d20546869732070726f706f73616c206973207072657061726564207769746820746865205b5365616d6c65737320476f7665726e616e63652050726f706f73616c7320746f6f6c735d2868747470733a2f2f6769746875622e636f6d2f7365616d6c6573732d70726f746f636f6c2f676f762d70726f706f73616c73290a2d2050726f706f73616c20616374696f6e7320616e642074657374732063616e20626520666f756e64205b686572655d2868747470733a2f2f6769746875622e636f6d2f7365616d6c6573732d70726f746f636f6c2f676f762d70726f706f73616c732f747265652f6d61696e2f70726f706f73616c732f7369705f343129000000000000000000000000000000000000000000000000",
        "nonce": "0x59",
        "chainId": "0x2105"
      },
      "additionalContracts": [],
      "isFixedGasLimit": false
    }
  ],
  "receipts": [
    {
      "status": "0x1",
      "cumulativeGasUsed": "0x2a33b59",
      "logs": [
        {
          "address": "0x8768c789c6df8af1a92d96de823b4f80010db294",
          "topics": [
            "0x7d84a6263ae0d98d3329bd7b46bb4e8d6f98cd35a7adb45c274c8b7fd5ebd5e0"
          ],
          "data": "0xf90167267837e21d76260b4ddd2c785fd54bbbb79edbc105110c298cda6e842b0000000000000000000000006d0c9128165a7bf2a2072319129d49d8f458fe0a0000000000000000000000000000000000000000000000000000000000000120000000000000000000000000000000000000000000000000000000000000016000000000000000000000000000000000000000000000000000000000000001a000000000000000000000000000000000000000000000000000000000000002000000000000000000000000000000000000000000000000000000000067c0a1770000000000000000000000000000000000000000000000000000000067c495f700000000000000000000000000000000000000000000000000000000000002c000000000000000000000000000000000000000000000000000000000000000010000000000000000000000001c7a460413dd4e964f96d8dfc56e7223ce88cd8500000000000000000000000000000000000000000000000000000000000000010000000000000000000000000000000000000000000000000000000000000000000000000000000000000000000000000000000000000000000000000000000100000000000000000000000000000000000000000000000000000000000000200000000000000000000000000000000000000000000000000000000000000000000000000000000000000000000000000000000000000000000000000000000100000000000000000000000000000000000000000000000000000000000000200000000000000000000000000000000000000000000000000000000000000044a9059cbb000000000000000000000000a1b5f2cc9b407177cd8a4acf1699fa0b99955a220000000000000000000000000000000000000000000014a0d4ac3d19eb6180000000000000000000000000000000000000000000000000000000000000000000000000000000000000000000000000000000000000000000000007c823205b5349502d34315d20436f6d70656e736174696f6e20666f722033782045544820494c4d204c69717569646174696f6e204576656e740a0a0a23232053756d6d6172790a0a4f6e20466562727561727920322c20323032352c207468652033782045544820494c4d20657870657269656e6365642061207261706964206c69717569646174696f6e2064756520746f2065787472656d65206d61726b657420766f6c6174696c6974792c2063617573696e67206164646974696f6e616c206c6f73736573206265796f6e64206e6f726d616c203378206c657665726167652064726177646f776e732e20546869732070726f706f73616c207365656b7320746f20636f6d70656e7361746520616666656374656420757365727320776974682065735345414d20746f6b656e732061742031303525206f6620746865206c69717569646174696f6e2070656e616c747920696e6375727265642c207573696e672061207265666572656e6365207072696365206f662024302e35353733207065722065735345414d2e204f6e6c792061646472657373657320656c696769626c6520666f72206174206c6561737420312065735345414d2077696c6c207265636569766520636f6d70656e736174696f6e2e2054686520746f74616c205345414d206275646765742077696c6c2062652073656e7420746f20746865205365616d6c65737320477561726469616e20666f7220646973747269627574696f6e206163636f7264696e6720746f207468652070726f766964656420737072656164736865657420616e642044756e65207175657279202873656520446973636f75727365292e0a0a232320436f6e7465787420616e64204d6f7469766174696f6e0a0a54686520696e636964656e74206f63637572726564207768656e20455448207072696365732064726f7070656420617070726f78696d6174656c792033302520696e20756e6465722035206d696e757465732e20486967682044455820736c6970706167652070726576656e7465642070726f70657220494c4d20726562616c616e63696e672c2074726967676572696e6720612070726f74656374697665206c69717569646174696f6e20746f2061766f69642062616420646562742e2054686520696d7061637420616666656374656420617070726f78696d6174656c79203730312075736572733a0a0a2d205374616e64617264206c6f737365733a205573657273206661636564207e3630252028337829206c6f737365732066726f6d20746865204554482070726963652064726f700a2d204164646974696f6e616c2070726f746f636f6c2d6c6576656c206c69717569646174696f6e206c6f7373657320616666656374656420736d616c6c206163636f756e747320282438352061766572616765206c6f7373292c20746f70203130206465706f7369746f7273202824352e326b2065616368292c20616e64206d69642d6c6576656c2075736572730a0a54686520636f6d70656e736174696f6e2073747275637475726520696e636c756465733a0a0a2d2050726f2d7261746120646973747269627574696f6e206261736564206f6e2065616368206164647265737327732070657263656e74616765206f66206c69717569646174696f6e2d7370656369666963206c6f737365730a2d203130352520636f76657261676520696e2065735345414d20746f206163636f756e7420666f722076657374696e6720616e642072656475636564206c69717569646974790a2d2031322d6d6f6e74682076657374696e67207363686564756c6520746f20656e73757265206c6f6e672d7465726d20616c69676e6d656e740a0a5468697320636f6d70656e736174696f6e206973206578706c696369746c792061206f6e652d6f6666206576656e7420616e6420646f6573206e6f742063726561746520612062696e64696e6720707265636564656e742e20546865207363656e6172696f207761732065787472616f7264696e6172696c7920726172652c2062757420636f6d70656e736174696f6e2069732077617272616e7465642064756520746f207468652070726f746f636f6c2d6c6576656c206661756c7420746f206d61696e7461696e207573657220636f6e666964656e63652e0a0a2323205265736f75726365732f5265666572656e6365730a0a2d2052656c6576616e7420446973636f7573652064697363757373696f6e3a2068747470733a2f2f7365616d6c65737370726f746f636f6c2e646973636f757273652e67726f75702f742f70726f706f73616c2d636f6d70656e736174696f6e2d666f722d33782d6574682d696c6d2d6c69717569646174696f6e2d6576656e742f3835352f3130200a2d20546869732070726f706f73616c206973207072657061726564207769746820746865205b5365616d6c65737320476f7665726e616e63652050726f706f73616c7320746f6f6c735d2868747470733a2f2f6769746875622e636f6d2f7365616d6c6573732d70726f746f636f6c2f676f762d70726f706f73616c73290a2d2050726f706f73616c20616374696f6e7320616e642074657374732063616e20626520666f756e64205b686572655d2868747470733a2f2f6769746875622e636f6d2f7365616d6c6573732d70726f746f636f6c2f676f762d70726f706f73616c732f747265652f6d61696e2f70726f706f73616c732f7369705f343129000000000000000000000000000000000000000000000000",
          "blockHash": "0xfe49d3686b034bf9b4c3c5ed4decddf88fa339ba35453d41db8bcdb2849255f8",
          "blockNumber": "0x199d0ca",
          "transactionHash": "0xdf1452e642ea02fa8e5d40f967d0f3e199a208a62dbf9359d06ac7f24c8a733d",
          "transactionIndex": "0x90",
          "logIndex": "0x1c9",
          "removed": false
        }
      ],
      "logsBloom": "0x00000000000000000000000000000000000000000000000000000000000000000000000000000000000000000000000200000000000000000000000000000000000000000002000000000000000000000000000000000000000000000000000000000000000000000000000000000000000000000000000000400000000000000000000000000000000000000000000000000000000000000000000000000000080000000000000000000000000000000000000000000000000000020000000200000000000000000000000000000000000000000000000000000000000000000000000000000000000000000000000000000000000000000000000000000000",
      "type": "0x2",
      "transactionHash": "0xdf1452e642ea02fa8e5d40f967d0f3e199a208a62dbf9359d06ac7f24c8a733d",
      "transactionIndex": "0x90",
      "blockHash": "0xfe49d3686b034bf9b4c3c5ed4decddf88fa339ba35453d41db8bcdb2849255f8",
      "blockNumber": "0x199d0ca",
      "gasUsed": "0x6289c",
      "effectiveGasPrice": "0x50d6d1",
      "from": "0x6d0c9128165a7bf2a2072319129d49d8f458fe0a",
      "to": "0x8768c789c6df8af1a92d96de823b4f80010db294",
      "contractAddress": null,
      "l1BaseFeeScalar": "0x8dd",
      "l1BlobBaseFee": "0x144927b48",
      "l1BlobBaseFeeScalar": "0x101c12",
      "l1Fee": "0x7508904df43",
      "l1GasPrice": "0x73bca588",
      "l1GasUsed": "0x565f"
    }
  ],
  "libraries": [],
  "pending": [],
  "returns": {},
  "timestamp": 1740504697,
  "chain": 8453,
  "commit": "49c367f"
}