{
  "transactions": [
    {
      "hash": "0xa153ae78bea897191368ed45a6aa4717323b22c8f7e5e46dd198e51aa4549261",
      "transactionType": "CALL",
      "contractName": null,
      "contractAddress": "0x8768c789c6df8af1a92d96de823b4f80010db294",
      "function": "propose(address[],uint256[],bytes[],string)",
      "arguments": [
        "[0x5a47C803488FE2BB0A0EAaf346b420e4dF22F3C7, 0x27D8c7273fd3fcC6956a0B370cE5Fd4A7fc65c18]",
        "[0, 0]",
        "[0x79ba5097, 0x79ba5097]",
        "# [SIP-40] Accept Ownership of Morpho Vaults\\n\\n## Summary\\n\\nSeamless Governance to accept ownership of newly deployed vaults on Morpho.\\n\\n## Context and motivation\\n\\nSeamless has launched 2 new vaults on Morpho. These vaults were initially deployed by Gauntlet on behalf of Seamless. Gauntlet is now transfering the ownership of these vaults to Seamless governance and Seamless governance must accept this transfer onchain to complete it.\\n\\n## Resources/References\\n\\n- Relevant Discouse discussions: [cbBTC](https://seamlessprotocol.discourse.group/t/introducing-the-seamless-cbbtc-vault/819) and [WETH](https://seamlessprotocol.discourse.group/t/introducing-seamless-weth-vault/864)\\n- This proposal is prepared with the [Seamless Governance Proposals tools](https://github.com/seamless-protocol/gov-proposals)\\n- Proposal actions and tests can be found [here](https://github.com/seamless-protocol/gov-proposals/tree/main/proposals/sip_40_morpho_vault_accept_ownership)"
      ],
      "transaction": {
        "from": "0x6d0c9128165a7bf2a2072319129d49d8f458fe0a",
        "to": "0x8768c789c6df8af1a92d96de823b4f80010db294",
        "gas": "0x79633",
        "value": "0x0",
        "input": "0x7d5e81e2000000000000000000000000000000000000000000000000000000000000008000000000000000000000000000000000000000000000000000000000000000e00000000000000000000000000000000000000000000000000000000000000140000000000000000000000000000000000000000000000000000000000000022000000000000000000000000000000000000000000000000000000000000000020000000000000000000000005a47c803488fe2bb0a0eaaf346b420e4df22f3c700000000000000000000000027d8c7273fd3fcc6956a0b370ce5fd4a7fc65c18000000000000000000000000000000000000000000000000000000000000000200000000000000000000000000000000000000000000000000000000000000000000000000000000000000000000000000000000000000000000000000000000000000000000000000000000000000000000000000000000000000000000000200000000000000000000000000000000000000000000000000000000000000400000000000000000000000000000000000000000000000000000000000000080000000000000000000000000000000000000000000000000000000000000000479ba509700000000000000000000000000000000000000000000000000000000000000000000000000000000000000000000000000000000000000000000000479ba50970000000000000000000000000000000000000000000000000000000000000000000000000000000000000000000000000000000000000000000003c223205b5349502d34305d20416363657074204f776e657273686970206f66204d6f7270686f205661756c74730a0a23232053756d6d6172790a0a5365616d6c65737320476f7665726e616e636520746f20616363657074206f776e657273686970206f66206e65776c79206465706c6f796564207661756c7473206f6e204d6f7270686f2e0a0a232320436f6e7465787420616e64206d6f7469766174696f6e0a0a5365616d6c65737320686173206c61756e636865642032206e6577207661756c7473206f6e204d6f7270686f2e205468657365207661756c7473207765726520696e697469616c6c79206465706c6f796564206279204761756e746c6574206f6e20626568616c66206f66205365616d6c6573732e204761756e746c6574206973206e6f77207472616e73666572696e6720746865206f776e657273686970206f66207468657365207661756c747320746f205365616d6c65737320676f7665726e616e636520616e64205365616d6c65737320676f7665726e616e6365206d757374206163636570742074686973207472616e73666572206f6e636861696e20746f20636f6d706c6574652069742e0a0a2323205265736f75726365732f5265666572656e6365730a0a2d2052656c6576616e7420446973636f7573652064697363757373696f6e733a205b63624254435d2868747470733a2f2f7365616d6c65737370726f746f636f6c2e646973636f757273652e67726f75702f742f696e74726f647563696e672d7468652d7365616d6c6573732d63626274632d7661756c742f3831392920616e64205b574554485d2868747470733a2f2f7365616d6c65737370726f746f636f6c2e646973636f757273652e67726f75702f742f696e74726f647563696e672d7365616d6c6573732d776574682d7661756c742f383634290a2d20546869732070726f706f73616c206973207072657061726564207769746820746865205b5365616d6c65737320476f7665726e616e63652050726f706f73616c7320746f6f6c735d2868747470733a2f2f6769746875622e636f6d2f7365616d6c6573732d70726f746f636f6c2f676f762d70726f706f73616c73290a2d2050726f706f73616c20616374696f6e7320616e642074657374732063616e20626520666f756e64205b686572655d2868747470733a2f2f6769746875622e636f6d2f7365616d6c6573732d70726f746f636f6c2f676f762d70726f706f73616c732f747265652f6d61696e2f70726f706f73616c732f7369705f34305f6d6f7270686f5f7661756c745f6163636570745f6f776e65727368697029000000000000000000000000000000000000000000000000000000000000",
        "nonce": "0x57",
        "chainId": "0x2105"
      },
      "additionalContracts": [],
      "isFixedGasLimit": false
    }
  ],
  "receipts": [
    {
      "status": "0x1",
      "cumulativeGasUsed": "0x3a70bde",
      "logs": [
        {
          "address": "0x8768c789c6df8af1a92d96de823b4f80010db294",
          "topics": [
            "0x7d84a6263ae0d98d3329bd7b46bb4e8d6f98cd35a7adb45c274c8b7fd5ebd5e0"
          ],
          "data": "0xe3adae179ac20b5a07fa22c4066687634b3ea7f07eeb8714ffbb73967bde06740000000000000000000000006d0c9128165a7bf2a2072319129d49d8f458fe0a0000000000000000000000000000000000000000000000000000000000000120000000000000000000000000000000000000000000000000000000000000018000000000000000000000000000000000000000000000000000000000000001e000000000000000000000000000000000000000000000000000000000000002800000000000000000000000000000000000000000000000000000000067b27c290000000000000000000000000000000000000000000000000000000067b670a9000000000000000000000000000000000000000000000000000000000000036000000000000000000000000000000000000000000000000000000000000000020000000000000000000000005a47c803488fe2bb0a0eaaf346b420e4df22f3c700000000000000000000000027d8c7273fd3fcc6956a0b370ce5fd4a7fc65c1800000000000000000000000000000000000000000000000000000000000000020000000000000000000000000000000000000000000000000000000000000000000000000000000000000000000000000000000000000000000000000000000000000000000000000000000000000000000000000000000000000000000000020000000000000000000000000000000000000000000000000000000000000040000000000000000000000000000000000000000000000000000000000000006000000000000000000000000000000000000000000000000000000000000000000000000000000000000000000000000000000000000000000000000000000000000000000000000000000000000000000000000000000000000000000000000200000000000000000000000000000000000000000000000000000000000000400000000000000000000000000000000000000000000000000000000000000080000000000000000000000000000000000000000000000000000000000000000479ba509700000000000000000000000000000000000000000000000000000000000000000000000000000000000000000000000000000000000000000000000479ba50970000000000000000000000000000000000000000000000000000000000000000000000000000000000000000000000000000000000000000000003c223205b5349502d34305d20416363657074204f776e657273686970206f66204d6f7270686f205661756c74730a0a23232053756d6d6172790a0a5365616d6c65737320476f7665726e616e636520746f20616363657074206f776e657273686970206f66206e65776c79206465706c6f796564207661756c7473206f6e204d6f7270686f2e0a0a232320436f6e7465787420616e64206d6f7469766174696f6e0a0a5365616d6c65737320686173206c61756e636865642032206e6577207661756c7473206f6e204d6f7270686f2e205468657365207661756c7473207765726520696e697469616c6c79206465706c6f796564206279204761756e746c6574206f6e20626568616c66206f66205365616d6c6573732e204761756e746c6574206973206e6f77207472616e73666572696e6720746865206f776e657273686970206f66207468657365207661756c747320746f205365616d6c65737320676f7665726e616e636520616e64205365616d6c65737320676f7665726e616e6365206d757374206163636570742074686973207472616e73666572206f6e636861696e20746f20636f6d706c6574652069742e0a0a2323205265736f75726365732f5265666572656e6365730a0a2d2052656c6576616e7420446973636f7573652064697363757373696f6e733a205b63624254435d2868747470733a2f2f7365616d6c65737370726f746f636f6c2e646973636f757273652e67726f75702f742f696e74726f647563696e672d7468652d7365616d6c6573732d63626274632d7661756c742f3831392920616e64205b574554485d2868747470733a2f2f7365616d6c65737370726f746f636f6c2e646973636f757273652e67726f75702f742f696e74726f647563696e672d7365616d6c6573732d776574682d7661756c742f383634290a2d20546869732070726f706f73616c206973207072657061726564207769746820746865205b5365616d6c65737320476f7665726e616e63652050726f706f73616c7320746f6f6c735d2868747470733a2f2f6769746875622e636f6d2f7365616d6c6573732d70726f746f636f6c2f676f762d70726f706f73616c73290a2d2050726f706f73616c20616374696f6e7320616e642074657374732063616e20626520666f756e64205b686572655d2868747470733a2f2f6769746875622e636f6d2f7365616d6c6573732d70726f746f636f6c2f676f762d70726f706f73616c732f747265652f6d61696e2f70726f706f73616c732f7369705f34305f6d6f7270686f5f7661756c745f6163636570745f6f776e65727368697029000000000000000000000000000000000000000000000000000000000000",
          "blockHash": "0x060c1d32687367d378cd629ad2becd1a66fdbe2d200f2047dc2be461c4273332",
          "blockNumber": "0x192be23",
          "transactionHash": "0xa153ae78bea897191368ed45a6aa4717323b22c8f7e5e46dd198e51aa4549261",
          "transactionIndex": "0x96",
          "logIndex": "0x49f",
          "removed": false
        }
      ],
      "logsBloom": "0x00000000000000000000000000000000000000000000000000000000000000000000000000000000000000000000000200000000000000000000000000000000000000000002000000000000000000000000000000000000000000000000000000000000000000000000000000000000000000000000000000400000000000000000000000000000000000000000000000000000000000000000000000000000080000000000000000000000000000000000000000000000000000020000000200000000000000000000000000000000000000000000000000000000000000000000000000000000000000000000000000000000000000000000000000000000",
      "type": "0x2",
      "transactionHash": "0xa153ae78bea897191368ed45a6aa4717323b22c8f7e5e46dd198e51aa4549261",
      "transactionIndex": "0x96",
      "blockHash": "0x060c1d32687367d378cd629ad2becd1a66fdbe2d200f2047dc2be461c4273332",
      "blockNumber": "0x192be23",
      "gasUsed": "0x57e1f",
      "effectiveGasPrice": "0x398215",
      "from": "0x6d0c9128165a7bf2a2072319129d49d8f458fe0a",
      "to": "0x8768c789c6df8af1a92d96de823b4f80010db294",
      "contractAddress": null,
      "l1BaseFeeScalar": "0x8dd",
      "l1BlobBaseFee": "0x3",
      "l1BlobBaseFeeScalar": "0x101c12",
      "l1Fee": "0x424135608",
      "l1GasPrice": "0x2a418a7a",
      "l1GasUsed": "0x2b30"
    }
  ],
  "libraries": [],
  "pending": [],
  "returns": {},
  "timestamp": 1739577643,
  "chain": 8453,
  "commit": "66c6817"
}