{
  "transactions": [
    {
      "hash": "0x6774348dde160ac6e8d552230f063f7e25cf61474eae6bef72594d3535b2ae22",
      "transactionType": "CALL",
      "contractName": null,
      "contractAddress": "0x8768c789c6df8af1a92d96de823b4f80010db294",
      "function": "propose(address[],uint256[],bytes[],string)",
      "arguments": [
        "[0x785c979EE8709060b3f71aEf4f2C09229DB90778, 0x1C7a460413dD4e964f96D8dFC56E7223cE88CD85]",
        "[0, 0]",
        "[0x1e83409a000000000000000000000000639d2dd24304ac2e6a691d8c1cff4a2665925fee, 0xa9059cbb000000000000000000000000a1b5f2cc9b407177cd8a4acf1699fa0b99955a220000000000000000000000000000000000000000000069e10de76676d0800000]",
        "# [SIP-30] Protocol Rewards Refresh 5\\n\\n## Summary\\n\\nPlatform reward emissions are ending on October 20th, 2024. Proposing an extension of the platform reward budget by drawing down on the SEAM in the short governor timelock and claiming more SEAM from the master emissions vesting smart contract.\\n\\nProposal for platforms rewards are:\\n- **Continue rewards?** YES\\n- **Schedule?** To be consistent with previous requests, continuing the cadence of 60 days (~2 months) - starting 10/20/24 (ASAP given the governance process timelines). Community re-examination and discussion to occur once a month or as-needed, as reward schedules can be updated/modified by Community Guardian (as of [SIP-7] execution).\\n- **Reward type?** Utilize primarily esSEAM (with a small SEAM budget that will default to esSEAM if not utilized)\\n- **Amount?** Current suggestion is to continue the 500,000 SEAM budget and neither increase nor decrease rewards. This SEAM would be sourced from the Guardian (which has custodied SEAM for this specific reason) and the short governor timelock to be utilized as a two month budget across all existing/to-be-launched markets on Seamless Protocol during this time period\\n\\n\\n## Context and motivation\\n\\nTVL has remained fairly constant during the last six month period as the wider DeFi/Base/altcoin ecosystem experienced volatility. [Rewards refresh #4](https://seamlessprotocol.discourse.group/t/pcp-protocol-rewards-refresh-4-marching-ahead/542) benefited from continued Gauntlet Network community-level reward [optimization analysis 1](https://seamlessprotocol.discourse.group/t/gauntlet-monthly-protocol-rewards-allocation-recommendation-sep-2024/570).\\n\\nThe current goal is to continue maintaining the TVL and growth of the protocol, with an enhanced focus on receiving recommendations from Gauntlet that may help further optimize these rewards. An important part of the platform is also continued updates on risk parameter adjustments, which is a parallel problem being discussed/solved via re-visiting the governance fast track approach as well as other potential third party collaborations (more to come here on this).\\n\\nThis proposal suggests another reward budget renewal at the previous budget of 500,000 SEAM (holding steady from the previous request). The DAO will primarily convert 480,000 SEAM to esSEAM, with the remaining 20,000 SEAM available as liquid rewards. If there is any unused SEAM from this 20k, it will also be converted to esSEAM.\\n\\nAs per before, rewards schedules will be based on recommendations from ecosystem partners/contributors, and this represents a maximum 2 month budget (it is possible less rewards are emitted during this time, and a “surplus” is run).\\n\\n## Resources/References\\n\\n- Discourse discussion [here](https://seamlessprotocol.discourse.group/t/pcp-protocol-rewards-refresh-5-rewards-continuation/578)\\n- This proposal is prepared with the [Seamless Governance Proposals tools](https://github.com/seamless-protocol/gov-proposals)\\n- Proposal actions and tests can be found [here](https://github.com/seamless-protocol/gov-proposals/tree/main/proposals/sip_30_protocol_rewards_refresh_5)\\n"
      ],
      "transaction": {
        "from": "0x6d0c9128165a7bf2a2072319129d49d8f458fe0a",
        "to": "0x8768c789c6df8af1a92d96de823b4f80010db294",
        "gas": "0xb3631",
        "value": "0x0",
        "input": "0x7d5e81e2000000000000000000000000000000000000000000000000000000000000008000000000000000000000000000000000000000000000000000000000000000e0000000000000000000000000000000000000000000000000000000000000014000000000000000000000000000000000000000000000000000000000000002800000000000000000000000000000000000000000000000000000000000000002000000000000000000000000785c979ee8709060b3f71aef4f2c09229db907780000000000000000000000001c7a460413dd4e964f96d8dfc56e7223ce88cd850000000000000000000000000000000000000000000000000000000000000002000000000000000000000000000000000000000000000000000000000000000000000000000000000000000000000000000000000000000000000000000000000000000000000000000000000000000000000000000000000000000000000002000000000000000000000000000000000000000000000000000000000000004000000000000000000000000000000000000000000000000000000000000000a000000000000000000000000000000000000000000000000000000000000000241e83409a000000000000000000000000639d2dd24304ac2e6a691d8c1cff4a2665925fee000000000000000000000000000000000000000000000000000000000000000000000000000000000000000000000000000000000000000000000044a9059cbb000000000000000000000000a1b5f2cc9b407177cd8a4acf1699fa0b99955a220000000000000000000000000000000000000000000069e10de76676d0800000000000000000000000000000000000000000000000000000000000000000000000000000000000000000000000000000000000000000000000000c4923205b5349502d33305d2050726f746f636f6c2052657761726473205265667265736820350a0a23232053756d6d6172790a0a506c6174666f726d2072657761726420656d697373696f6e732061726520656e64696e67206f6e204f63746f62657220323074682c20323032342e2050726f706f73696e6720616e20657874656e73696f6e206f662074686520706c6174666f726d20726577617264206275646765742062792064726177696e6720646f776e206f6e20746865205345414d20696e207468652073686f727420676f7665726e6f722074696d656c6f636b20616e6420636c61696d696e67206d6f7265205345414d2066726f6d20746865206d617374657220656d697373696f6e732076657374696e6720736d61727420636f6e74726163742e0a0a50726f706f73616c20666f7220706c6174666f726d732072657761726473206172653a0a2d202a2a436f6e74696e756520726577617264733f2a2a205945530a2d202a2a5363686564756c653f2a2a20546f20626520636f6e73697374656e7420776974682070726576696f75732072657175657374732c20636f6e74696e75696e672074686520636164656e6365206f66203630206461797320287e32206d6f6e74687329202d207374617274696e672031302f32302f323420284153415020676976656e2074686520676f7665726e616e63652070726f636573732074696d656c696e6573292e20436f6d6d756e6974792072652d6578616d696e6174696f6e20616e642064697363757373696f6e20746f206f63637572206f6e63652061206d6f6e7468206f722061732d6e65656465642c20617320726577617264207363686564756c65732063616e20626520757064617465642f6d6f64696669656420627920436f6d6d756e69747920477561726469616e20286173206f66205b5349502d375d20657865637574696f6e292e0a2d202a2a52657761726420747970653f2a2a205574696c697a65207072696d6172696c792065735345414d202877697468206120736d616c6c205345414d2062756467657420746861742077696c6c2064656661756c7420746f2065735345414d206966206e6f74207574696c697a6564290a2d202a2a416d6f756e743f2a2a2043757272656e742073756767657374696f6e20697320746f20636f6e74696e756520746865203530302c303030205345414d2062756467657420616e64206e65697468657220696e637265617365206e6f7220646563726561736520726577617264732e2054686973205345414d20776f756c6420626520736f75726365642066726f6d2074686520477561726469616e202877686963682068617320637573746f64696564205345414d20666f72207468697320737065636966696320726561736f6e2920616e64207468652073686f727420676f7665726e6f722074696d656c6f636b20746f206265207574696c697a656420617320612074776f206d6f6e746820627564676574206163726f737320616c6c206578697374696e672f746f2d62652d6c61756e63686564206d61726b657473206f6e205365616d6c6573732050726f746f636f6c20647572696e6720746869732074696d6520706572696f640a0a0a232320436f6e7465787420616e64206d6f7469766174696f6e0a0a54564c206861732072656d61696e656420666169726c7920636f6e7374616e7420647572696e6720746865206c61737420736978206d6f6e746820706572696f642061732074686520776964657220446546692f426173652f616c74636f696e2065636f73797374656d20657870657269656e63656420766f6c6174696c6974792e205b5265776172647320726566726573682023345d2868747470733a2f2f7365616d6c65737370726f746f636f6c2e646973636f757273652e67726f75702f742f7063702d70726f746f636f6c2d726577617264732d726566726573682d342d6d61726368696e672d61686561642f353432292062656e6566697465642066726f6d20636f6e74696e756564204761756e746c6574204e6574776f726b20636f6d6d756e6974792d6c6576656c20726577617264205b6f7074696d697a6174696f6e20616e616c7973697320315d2868747470733a2f2f7365616d6c65737370726f746f636f6c2e646973636f757273652e67726f75702f742f6761756e746c65742d6d6f6e74686c792d70726f746f636f6c2d726577617264732d616c6c6f636174696f6e2d7265636f6d6d656e646174696f6e2d7365702d323032342f353730292e0a0a5468652063757272656e7420676f616c20697320746f20636f6e74696e7565206d61696e7461696e696e67207468652054564c20616e642067726f777468206f66207468652070726f746f636f6c2c207769746820616e20656e68616e63656420666f637573206f6e20726563656976696e67207265636f6d6d656e646174696f6e732066726f6d204761756e746c65742074686174206d61792068656c702066757274686572206f7074696d697a6520746865736520726577617264732e20416e20696d706f7274616e742070617274206f662074686520706c6174666f726d20697320616c736f20636f6e74696e7565642075706461746573206f6e207269736b20706172616d657465722061646a7573746d656e74732c207768696368206973206120706172616c6c656c2070726f626c656d206265696e67206469736375737365642f736f6c766564207669612072652d7669736974696e672074686520676f7665726e616e6365206661737420747261636b20617070726f6163682061732077656c6c206173206f7468657220706f74656e7469616c20746869726420706172747920636f6c6c61626f726174696f6e7320286d6f726520746f20636f6d652068657265206f6e2074686973292e0a0a546869732070726f706f73616c20737567676573747320616e6f7468657220726577617264206275646765742072656e6577616c206174207468652070726576696f757320627564676574206f66203530302c303030205345414d2028686f6c64696e67207374656164792066726f6d207468652070726576696f75732072657175657374292e205468652044414f2077696c6c207072696d6172696c7920636f6e76657274203438302c303030205345414d20746f2065735345414d2c2077697468207468652072656d61696e696e672032302c303030205345414d20617661696c61626c65206173206c697175696420726577617264732e20496620746865726520697320616e7920756e75736564205345414d2066726f6d20746869732032306b2c2069742077696c6c20616c736f20626520636f6e76657274656420746f2065735345414d2e0a0a417320706572206265666f72652c2072657761726473207363686564756c65732077696c6c206265206261736564206f6e207265636f6d6d656e646174696f6e732066726f6d2065636f73797374656d20706172746e6572732f636f6e7472696275746f72732c20616e64207468697320726570726573656e74732061206d6178696d756d2032206d6f6e7468206275646765742028697420697320706f737369626c65206c65737320726577617264732061726520656d697474656420647572696e6720746869732074696d652c20616e64206120e2809c737572706c7573e2809d2069732072756e292e0a0a2323205265736f75726365732f5265666572656e6365730a0a2d20446973636f757273652064697363757373696f6e205b686572655d2868747470733a2f2f7365616d6c65737370726f746f636f6c2e646973636f757273652e67726f75702f742f7063702d70726f746f636f6c2d726577617264732d726566726573682d352d726577617264732d636f6e74696e756174696f6e2f353738290a2d20546869732070726f706f73616c206973207072657061726564207769746820746865205b5365616d6c65737320476f7665726e616e63652050726f706f73616c7320746f6f6c735d2868747470733a2f2f6769746875622e636f6d2f7365616d6c6573732d70726f746f636f6c2f676f762d70726f706f73616c73290a2d2050726f706f73616c20616374696f6e7320616e642074657374732063616e20626520666f756e64205b686572655d2868747470733a2f2f6769746875622e636f6d2f7365616d6c6573732d70726f746f636f6c2f676f762d70726f706f73616c732f747265652f6d61696e2f70726f706f73616c732f7369705f33305f70726f746f636f6c5f726577617264735f726566726573685f35290a0000000000000000000000000000000000000000000000",
        "nonce": "0x41",
        "chainId": "0x2105"
      },
      "additionalContracts": [],
      "isFixedGasLimit": false
    }
  ],
  "receipts": [
    {
      "status": "0x1",
      "cumulativeGasUsed": "0xd784d8",
      "logs": [
        {
          "address": "0x8768c789c6df8af1a92d96de823b4f80010db294",
          "topics": [
            "0x7d84a6263ae0d98d3329bd7b46bb4e8d6f98cd35a7adb45c274c8b7fd5ebd5e0"
          ],
          "data": "0x2792c14f8e20132717a49497ca137bd425e94fe9236792d45a591b2ee827ce9a0000000000000000000000006d0c9128165a7bf2a2072319129d49d8f458fe0a0000000000000000000000000000000000000000000000000000000000000120000000000000000000000000000000000000000000000000000000000000018000000000000000000000000000000000000000000000000000000000000001e0000000000000000000000000000000000000000000000000000000000000028000000000000000000000000000000000000000000000000000000000670faab70000000000000000000000000000000000000000000000000000000067139f3700000000000000000000000000000000000000000000000000000000000003c00000000000000000000000000000000000000000000000000000000000000002000000000000000000000000785c979ee8709060b3f71aef4f2c09229db907780000000000000000000000001c7a460413dd4e964f96d8dfc56e7223ce88cd85000000000000000000000000000000000000000000000000000000000000000200000000000000000000000000000000000000000000000000000000000000000000000000000000000000000000000000000000000000000000000000000000000000000000000000000000000000000000000000000000000000000000000200000000000000000000000000000000000000000000000000000000000000400000000000000000000000000000000000000000000000000000000000000060000000000000000000000000000000000000000000000000000000000000000000000000000000000000000000000000000000000000000000000000000000000000000000000000000000000000000000000000000000000000000000000002000000000000000000000000000000000000000000000000000000000000004000000000000000000000000000000000000000000000000000000000000000a000000000000000000000000000000000000000000000000000000000000000241e83409a000000000000000000000000639d2dd24304ac2e6a691d8c1cff4a2665925fee000000000000000000000000000000000000000000000000000000000000000000000000000000000000000000000000000000000000000000000044a9059cbb000000000000000000000000a1b5f2cc9b407177cd8a4acf1699fa0b99955a220000000000000000000000000000000000000000000069e10de76676d0800000000000000000000000000000000000000000000000000000000000000000000000000000000000000000000000000000000000000000000000000c4923205b5349502d33305d2050726f746f636f6c2052657761726473205265667265736820350a0a23232053756d6d6172790a0a506c6174666f726d2072657761726420656d697373696f6e732061726520656e64696e67206f6e204f63746f62657220323074682c20323032342e2050726f706f73696e6720616e20657874656e73696f6e206f662074686520706c6174666f726d20726577617264206275646765742062792064726177696e6720646f776e206f6e20746865205345414d20696e207468652073686f727420676f7665726e6f722074696d656c6f636b20616e6420636c61696d696e67206d6f7265205345414d2066726f6d20746865206d617374657220656d697373696f6e732076657374696e6720736d61727420636f6e74726163742e0a0a50726f706f73616c20666f7220706c6174666f726d732072657761726473206172653a0a2d202a2a436f6e74696e756520726577617264733f2a2a205945530a2d202a2a5363686564756c653f2a2a20546f20626520636f6e73697374656e7420776974682070726576696f75732072657175657374732c20636f6e74696e75696e672074686520636164656e6365206f66203630206461797320287e32206d6f6e74687329202d207374617274696e672031302f32302f323420284153415020676976656e2074686520676f7665726e616e63652070726f636573732074696d656c696e6573292e20436f6d6d756e6974792072652d6578616d696e6174696f6e20616e642064697363757373696f6e20746f206f63637572206f6e63652061206d6f6e7468206f722061732d6e65656465642c20617320726577617264207363686564756c65732063616e20626520757064617465642f6d6f64696669656420627920436f6d6d756e69747920477561726469616e20286173206f66205b5349502d375d20657865637574696f6e292e0a2d202a2a52657761726420747970653f2a2a205574696c697a65207072696d6172696c792065735345414d202877697468206120736d616c6c205345414d2062756467657420746861742077696c6c2064656661756c7420746f2065735345414d206966206e6f74207574696c697a6564290a2d202a2a416d6f756e743f2a2a2043757272656e742073756767657374696f6e20697320746f20636f6e74696e756520746865203530302c303030205345414d2062756467657420616e64206e65697468657220696e637265617365206e6f7220646563726561736520726577617264732e2054686973205345414d20776f756c6420626520736f75726365642066726f6d2074686520477561726469616e202877686963682068617320637573746f64696564205345414d20666f72207468697320737065636966696320726561736f6e2920616e64207468652073686f727420676f7665726e6f722074696d656c6f636b20746f206265207574696c697a656420617320612074776f206d6f6e746820627564676574206163726f737320616c6c206578697374696e672f746f2d62652d6c61756e63686564206d61726b657473206f6e205365616d6c6573732050726f746f636f6c20647572696e6720746869732074696d6520706572696f640a0a0a232320436f6e7465787420616e64206d6f7469766174696f6e0a0a54564c206861732072656d61696e656420666169726c7920636f6e7374616e7420647572696e6720746865206c61737420736978206d6f6e746820706572696f642061732074686520776964657220446546692f426173652f616c74636f696e2065636f73797374656d20657870657269656e63656420766f6c6174696c6974792e205b5265776172647320726566726573682023345d2868747470733a2f2f7365616d6c65737370726f746f636f6c2e646973636f757273652e67726f75702f742f7063702d70726f746f636f6c2d726577617264732d726566726573682d342d6d61726368696e672d61686561642f353432292062656e6566697465642066726f6d20636f6e74696e756564204761756e746c6574204e6574776f726b20636f6d6d756e6974792d6c6576656c20726577617264205b6f7074696d697a6174696f6e20616e616c7973697320315d2868747470733a2f2f7365616d6c65737370726f746f636f6c2e646973636f757273652e67726f75702f742f6761756e746c65742d6d6f6e74686c792d70726f746f636f6c2d726577617264732d616c6c6f636174696f6e2d7265636f6d6d656e646174696f6e2d7365702d323032342f353730292e0a0a5468652063757272656e7420676f616c20697320746f20636f6e74696e7565206d61696e7461696e696e67207468652054564c20616e642067726f777468206f66207468652070726f746f636f6c2c207769746820616e20656e68616e63656420666f637573206f6e20726563656976696e67207265636f6d6d656e646174696f6e732066726f6d204761756e746c65742074686174206d61792068656c702066757274686572206f7074696d697a6520746865736520726577617264732e20416e20696d706f7274616e742070617274206f662074686520706c6174666f726d20697320616c736f20636f6e74696e7565642075706461746573206f6e207269736b20706172616d657465722061646a7573746d656e74732c207768696368206973206120706172616c6c656c2070726f626c656d206265696e67206469736375737365642f736f6c766564207669612072652d7669736974696e672074686520676f7665726e616e6365206661737420747261636b20617070726f6163682061732077656c6c206173206f7468657220706f74656e7469616c20746869726420706172747920636f6c6c61626f726174696f6e7320286d6f726520746f20636f6d652068657265206f6e2074686973292e0a0a546869732070726f706f73616c20737567676573747320616e6f7468657220726577617264206275646765742072656e6577616c206174207468652070726576696f757320627564676574206f66203530302c303030205345414d2028686f6c64696e67207374656164792066726f6d207468652070726576696f75732072657175657374292e205468652044414f2077696c6c207072696d6172696c7920636f6e76657274203438302c303030205345414d20746f2065735345414d2c2077697468207468652072656d61696e696e672032302c303030205345414d20617661696c61626c65206173206c697175696420726577617264732e20496620746865726520697320616e7920756e75736564205345414d2066726f6d20746869732032306b2c2069742077696c6c20616c736f20626520636f6e76657274656420746f2065735345414d2e0a0a417320706572206265666f72652c2072657761726473207363686564756c65732077696c6c206265206261736564206f6e207265636f6d6d656e646174696f6e732066726f6d2065636f73797374656d20706172746e6572732f636f6e7472696275746f72732c20616e64207468697320726570726573656e74732061206d6178696d756d2032206d6f6e7468206275646765742028697420697320706f737369626c65206c65737320726577617264732061726520656d697474656420647572696e6720746869732074696d652c20616e64206120e2809c737572706c7573e2809d2069732072756e292e0a0a2323205265736f75726365732f5265666572656e6365730a0a2d20446973636f757273652064697363757373696f6e205b686572655d2868747470733a2f2f7365616d6c65737370726f746f636f6c2e646973636f757273652e67726f75702f742f7063702d70726f746f636f6c2d726577617264732d726566726573682d352d726577617264732d636f6e74696e756174696f6e2f353738290a2d20546869732070726f706f73616c206973207072657061726564207769746820746865205b5365616d6c65737320476f7665726e616e63652050726f706f73616c7320746f6f6c735d2868747470733a2f2f6769746875622e636f6d2f7365616d6c6573732d70726f746f636f6c2f676f762d70726f706f73616c73290a2d2050726f706f73616c20616374696f6e7320616e642074657374732063616e20626520666f756e64205b686572655d2868747470733a2f2f6769746875622e636f6d2f7365616d6c6573732d70726f746f636f6c2f676f762d70726f706f73616c732f747265652f6d61696e2f70726f706f73616c732f7369705f33305f70726f746f636f6c5f726577617264735f726566726573685f35290a0000000000000000000000000000000000000000000000",
          "blockHash": "0x9a43b5e4d00aade29c2fbb83e7430b0f0335f38eb88d2fdf94253d9d26100a5d",
          "blockNumber": "0x141556a",
          "transactionHash": "0x6774348dde160ac6e8d552230f063f7e25cf61474eae6bef72594d3535b2ae22",
          "transactionIndex": "0x63",
          "logIndex": "0xc7",
          "removed": false
        }
      ],
      "logsBloom": "0x00000000000000000000000000000000000000000000000000000000000000000000000000000000000000000000000200000000000000000000000000000000000000000002000000000000000000000000000000000000000000000000000000000000000000000000000000000000000000000000000000400000000000000000000000000000000000000000000000000000000000000000000000000000080000000000000000000000000000000000000000000000000000020000000200000000000000000000000000000000000000000000000000000000000000000000000000000000000000000000000000000000000000000000000000000000",
      "type": "0x2",
      "transactionHash": "0x6774348dde160ac6e8d552230f063f7e25cf61474eae6bef72594d3535b2ae22",
      "transactionIndex": "0x63",
      "blockHash": "0x9a43b5e4d00aade29c2fbb83e7430b0f0335f38eb88d2fdf94253d9d26100a5d",
      "blockNumber": "0x141556a",
      "gasUsed": "0x81df8",
      "effectiveGasPrice": "0x702a14",
      "from": "0x6d0c9128165a7bf2a2072319129d49d8f458fe0a",
      "to": "0x8768c789c6df8af1a92d96de823b4f80010db294",
      "contractAddress": null,
      "l1BaseFeeScalar": "0x8dd",
      "l1BlobBaseFee": "0x1",
      "l1BlobBaseFeeScalar": "0x101c12",
      "l1Fee": "0x324c8f6107b",
      "l1GasPrice": "0xb22668eba",
      "l1GasUsed": "0x7c6f"
    }
  ],
  "libraries": [],
  "pending": [],
  "returns": {},
  "timestamp": 1728907197,
  "chain": 8453,
  "commit": "ac04a83"
}