{
  "transactions": [
    {
      "hash": "0x0afdac65a0ca54b357811f805f0464758c67a5c2aca8d7769e33f06d1e011871",
      "transactionType": "CALL",
      "contractName": null,
      "contractAddress": "0x8768c789c6df8af1a92d96de823b4f80010db294",
      "function": "propose(address[],uint256[],bytes[],string)",
      "arguments": [
        "[0x7B08A77539A50218c8fB4B706B87fb799d3505A0]",
        "[0]",
        "[0x7c4e560b000000000000000000000000940181a94a35a4569e4529a3cdfb74e38fd986310000000000000000000000000000000000000000000000000000000000001a5e0000000000000000000000000000000000000000000000000000000000001c520000000000000000000000000000000000000000000000000000000000002af8]",
        "# [SIP-34] Update AERO Risk Parameters\\n\\n## Summary\\n\\nProposal to increase AERO\\'s liquidation threshold and LTV on Seamless lending pool.\\n\\n## Context and motivation\\n\\nThe Seamless Community (shoutout to Sean from YieldSchool) has noted that Seamless parameters for the AERO market are conservative as compared to other Base DeFi platforms. As such, the Seamless community is requesting a re-review and refresh of key AERO parameters, specifically LTV and LT.\\n\\n### Chaos Labs Recommendations\\n\\n| Asset | Current LTV | Recommended LTV | Current LT | Recommended LT |\\n| ----- | ----------- | --------------- | ---------- | -------------- |\\n| AERO  | 30%         | 67.5%           | 40%        | 72.5%          |\\n\\n## Resources/References\\n\\n- This proposal is prepared with the [Seamless Governance Proposals tools](https://github.com/seamless-protocol/gov-proposals)\\n- Proposal actions and tests can be found [here](https://github.com/seamless-protocol/gov-proposals/tree/main/proposals/sip_37_update_AERO_risk_params)\\n- Discourse thread can be found [here](https://seamlessprotocol.discourse.group/t/pcp-updating-aero-parameters-lt-and-ltv/626)\\n"
      ],
      "transaction": {
        "from": "0x6d0c9128165a7bf2a2072319129d49d8f458fe0a",
        "to": "0x8768c789c6df8af1a92d96de823b4f80010db294",
        "gas": "0x8f97b",
        "value": "0x0",
        "input": "0x7d5e81e2000000000000000000000000000000000000000000000000000000000000008000000000000000000000000000000000000000000000000000000000000000c00000000000000000000000000000000000000000000000000000000000000100000000000000000000000000000000000000000000000000000000000000020000000000000000000000000000000000000000000000000000000000000000010000000000000000000000007b08a77539a50218c8fb4b706b87fb799d3505a0000000000000000000000000000000000000000000000000000000000000000100000000000000000000000000000000000000000000000000000000000000000000000000000000000000000000000000000000000000000000000000000001000000000000000000000000000000000000000000000000000000000000002000000000000000000000000000000000000000000000000000000000000000847c4e560b000000000000000000000000940181a94a35a4569e4529a3cdfb74e38fd986310000000000000000000000000000000000000000000000000000000000001a5e0000000000000000000000000000000000000000000000000000000000001c520000000000000000000000000000000000000000000000000000000000002af800000000000000000000000000000000000000000000000000000000000000000000000000000000000000000000000000000000000000000000047123205b5349502d33345d20557064617465204145524f205269736b20506172616d65746572730a0a23232053756d6d6172790a0a50726f706f73616c20746f20696e637265617365204145524f2773206c69717569646174696f6e207468726573686f6c6420616e64204c5456206f6e205365616d6c657373206c656e64696e6720706f6f6c2e0a0a232320436f6e7465787420616e64206d6f7469766174696f6e0a0a546865205365616d6c65737320436f6d6d756e697479202873686f75746f757420746f205365616e2066726f6d205969656c645363686f6f6c2920686173206e6f7465642074686174205365616d6c65737320706172616d657465727320666f7220746865204145524f206d61726b65742061726520636f6e73657276617469766520617320636f6d706172656420746f206f746865722042617365204465466920706c6174666f726d732e20417320737563682c20746865205365616d6c65737320636f6d6d756e6974792069732072657175657374696e6720612072652d72657669657720616e642072656672657368206f66206b6579204145524f20706172616d65746572732c207370656369666963616c6c79204c545620616e64204c542e0a0a232323204368616f73204c616273205265636f6d6d656e646174696f6e730a0a7c204173736574207c2043757272656e74204c5456207c205265636f6d6d656e646564204c5456207c2043757272656e74204c54207c205265636f6d6d656e646564204c54207c0a7c202d2d2d2d2d207c202d2d2d2d2d2d2d2d2d2d2d207c202d2d2d2d2d2d2d2d2d2d2d2d2d2d2d207c202d2d2d2d2d2d2d2d2d2d207c202d2d2d2d2d2d2d2d2d2d2d2d2d2d207c0a7c204145524f20207c203330252020202020202020207c2036372e352520202020202020202020207c2034302520202020202020207c2037322e3525202020202020202020207c0a0a2323205265736f75726365732f5265666572656e6365730a0a2d20546869732070726f706f73616c206973207072657061726564207769746820746865205b5365616d6c65737320476f7665726e616e63652050726f706f73616c7320746f6f6c735d2868747470733a2f2f6769746875622e636f6d2f7365616d6c6573732d70726f746f636f6c2f676f762d70726f706f73616c73290a2d2050726f706f73616c20616374696f6e7320616e642074657374732063616e20626520666f756e64205b686572655d2868747470733a2f2f6769746875622e636f6d2f7365616d6c6573732d70726f746f636f6c2f676f762d70726f706f73616c732f747265652f6d61696e2f70726f706f73616c732f7369705f33375f7570646174655f4145524f5f7269736b5f706172616d73290a2d20446973636f75727365207468726561642063616e20626520666f756e64205b686572655d2868747470733a2f2f7365616d6c65737370726f746f636f6c2e646973636f757273652e67726f75702f742f7063702d7570646174696e672d6165726f2d706172616d65746572732d6c742d616e642d6c74762f363236290a000000000000000000000000000000",
        "nonce": "0x4b",
        "chainId": "0x2105"
      },
      "additionalContracts": [],
      "isFixedGasLimit": false
    }
  ],
  "receipts": [
    {
      "status": "0x1",
      "cumulativeGasUsed": "0x1c8ce8e",
      "logs": [
        {
          "address": "0x8768c789c6df8af1a92d96de823b4f80010db294",
          "topics": [
            "0x7d84a6263ae0d98d3329bd7b46bb4e8d6f98cd35a7adb45c274c8b7fd5ebd5e0"
          ],
          "data": "0x705602e1d2513e0e749f661448311a7c9c278bb7f045ca0295d690318b0185990000000000000000000000006d0c9128165a7bf2a2072319129d49d8f458fe0a0000000000000000000000000000000000000000000000000000000000000120000000000000000000000000000000000000000000000000000000000000016000000000000000000000000000000000000000000000000000000000000001a0000000000000000000000000000000000000000000000000000000000000020000000000000000000000000000000000000000000000000000000000675f3ad10000000000000000000000000000000000000000000000000000000067632f51000000000000000000000000000000000000000000000000000000000000030000000000000000000000000000000000000000000000000000000000000000010000000000000000000000007b08a77539a50218c8fb4b706b87fb799d3505a0000000000000000000000000000000000000000000000000000000000000000100000000000000000000000000000000000000000000000000000000000000000000000000000000000000000000000000000000000000000000000000000001000000000000000000000000000000000000000000000000000000000000002000000000000000000000000000000000000000000000000000000000000000000000000000000000000000000000000000000000000000000000000000000001000000000000000000000000000000000000000000000000000000000000002000000000000000000000000000000000000000000000000000000000000000847c4e560b000000000000000000000000940181a94a35a4569e4529a3cdfb74e38fd986310000000000000000000000000000000000000000000000000000000000001a5e0000000000000000000000000000000000000000000000000000000000001c520000000000000000000000000000000000000000000000000000000000002af800000000000000000000000000000000000000000000000000000000000000000000000000000000000000000000000000000000000000000000047123205b5349502d33345d20557064617465204145524f205269736b20506172616d65746572730a0a23232053756d6d6172790a0a50726f706f73616c20746f20696e637265617365204145524f2773206c69717569646174696f6e207468726573686f6c6420616e64204c5456206f6e205365616d6c657373206c656e64696e6720706f6f6c2e0a0a232320436f6e7465787420616e64206d6f7469766174696f6e0a0a546865205365616d6c65737320436f6d6d756e697479202873686f75746f757420746f205365616e2066726f6d205969656c645363686f6f6c2920686173206e6f7465642074686174205365616d6c65737320706172616d657465727320666f7220746865204145524f206d61726b65742061726520636f6e73657276617469766520617320636f6d706172656420746f206f746865722042617365204465466920706c6174666f726d732e20417320737563682c20746865205365616d6c65737320636f6d6d756e6974792069732072657175657374696e6720612072652d72657669657720616e642072656672657368206f66206b6579204145524f20706172616d65746572732c207370656369666963616c6c79204c545620616e64204c542e0a0a232323204368616f73204c616273205265636f6d6d656e646174696f6e730a0a7c204173736574207c2043757272656e74204c5456207c205265636f6d6d656e646564204c5456207c2043757272656e74204c54207c205265636f6d6d656e646564204c54207c0a7c202d2d2d2d2d207c202d2d2d2d2d2d2d2d2d2d2d207c202d2d2d2d2d2d2d2d2d2d2d2d2d2d2d207c202d2d2d2d2d2d2d2d2d2d207c202d2d2d2d2d2d2d2d2d2d2d2d2d2d207c0a7c204145524f20207c203330252020202020202020207c2036372e352520202020202020202020207c2034302520202020202020207c2037322e3525202020202020202020207c0a0a2323205265736f75726365732f5265666572656e6365730a0a2d20546869732070726f706f73616c206973207072657061726564207769746820746865205b5365616d6c65737320476f7665726e616e63652050726f706f73616c7320746f6f6c735d2868747470733a2f2f6769746875622e636f6d2f7365616d6c6573732d70726f746f636f6c2f676f762d70726f706f73616c73290a2d2050726f706f73616c20616374696f6e7320616e642074657374732063616e20626520666f756e64205b686572655d2868747470733a2f2f6769746875622e636f6d2f7365616d6c6573732d70726f746f636f6c2f676f762d70726f706f73616c732f747265652f6d61696e2f70726f706f73616c732f7369705f33375f7570646174655f4145524f5f7269736b5f706172616d73290a2d20446973636f75727365207468726561642063616e20626520666f756e64205b686572655d2868747470733a2f2f7365616d6c65737370726f746f636f6c2e646973636f757273652e67726f75702f742f7063702d7570646174696e672d6165726f2d706172616d65746572732d6c742d616e642d6c74762f363236290a000000000000000000000000000000",
          "blockHash": "0x06c073d8d0a1a02b54df538b672fa8d45878edbea67978dc0d6bb89024aa86b1",
          "blockNumber": "0x1691d77",
          "transactionHash": "0x0afdac65a0ca54b357811f805f0464758c67a5c2aca8d7769e33f06d1e011871",
          "transactionIndex": "0xc4",
          "logIndex": "0x16b",
          "removed": false
        }
      ],
      "logsBloom": "0x00000000000000000000000000000000000000000000000000000000000000000000000000000000000000000000000200000000000000000000000000000000000000000002000000000000000000000000000000000000000000000000000000000000000000000000000000000000000000000000000000400000000000000000000000000000000000000000000000000000000000000000000000000000080000000000000000000000000000000000000000000000000000020000000200000000000000000000000000000000000000000000000000000000000000000000000000000000000000000000000000000000000000000000000000000000",
      "type": "0x2",
      "transactionHash": "0x0afdac65a0ca54b357811f805f0464758c67a5c2aca8d7769e33f06d1e011871",
      "transactionIndex": "0xc4",
      "blockHash": "0x06c073d8d0a1a02b54df538b672fa8d45878edbea67978dc0d6bb89024aa86b1",
      "blockNumber": "0x1691d77",
      "gasUsed": "0x67f56",
      "effectiveGasPrice": "0x100a6b1",
      "from": "0x6d0c9128165a7bf2a2072319129d49d8f458fe0a",
      "to": "0x8768c789c6df8af1a92d96de823b4f80010db294",
      "contractAddress": null,
      "l1BaseFeeScalar": "0x8dd",
      "l1BlobBaseFee": "0x1ab3c41da",
      "l1BlobBaseFeeScalar": "0x101c12",
      "l1Fee": "0x64148e543c6",
      "l1GasPrice": "0x335370d42",
      "l1GasUsed": "0x3547"
    }
  ],
  "libraries": [],
  "pending": [],
  "returns": {},
  "timestamp": 1734121428,
  "chain": 8453,
  "commit": "01ff4eb"
}